{
  "contractName": "GreedIslandS1",
  "abi": [
    {
      "inputs": [
        {
          "internalType": "string",
          "name": "newBaseURI",
          "type": "string"
        },
        {
          "internalType": "uint256",
          "name": "_maxBasicCard",
          "type": "uint256"
        },
        {
          "internalType": "uint256",
          "name": "_maxACard",
          "type": "uint256"
        },
        {
          "internalType": "uint256",
          "name": "_maxSCard",
          "type": "uint256"
        },
        {
          "internalType": "uint256",
          "name": "_maxSSCard",
          "type": "uint256"
        },
        {
          "internalType": "uint256",
          "name": "_maxXCard",
          "type": "uint256"
        },
        {
          "internalType": "uint256",
          "name": "_sRatio",
          "type": "uint256"
        },
        {
          "internalType": "uint256",
          "name": "_ssRatio",
          "type": "uint256"
        },
        {
          "internalType": "uint256",
          "name": "_xRatio",
          "type": "uint256"
        }
      ],
      "stateMutability": "nonpayable",
      "type": "constructor"
    },
    {
      "anonymous": false,
      "inputs": [
        {
          "indexed": true,
          "internalType": "address",
          "name": "owner",
          "type": "address"
        },
        {
          "indexed": true,
          "internalType": "address",
          "name": "approved",
          "type": "address"
        },
        {
          "indexed": true,
          "internalType": "uint256",
          "name": "tokenId",
          "type": "uint256"
        }
      ],
      "name": "Approval",
      "type": "event"
    },
    {
      "anonymous": false,
      "inputs": [
        {
          "indexed": true,
          "internalType": "address",
          "name": "owner",
          "type": "address"
        },
        {
          "indexed": true,
          "internalType": "address",
          "name": "operator",
          "type": "address"
        },
        {
          "indexed": false,
          "internalType": "bool",
          "name": "approved",
          "type": "bool"
        }
      ],
      "name": "ApprovalForAll",
      "type": "event"
    },
    {
      "anonymous": false,
      "inputs": [
        {
          "indexed": true,
          "internalType": "address",
          "name": "previousOwner",
          "type": "address"
        },
        {
          "indexed": true,
          "internalType": "address",
          "name": "newOwner",
          "type": "address"
        }
      ],
      "name": "OwnershipTransferred",
      "type": "event"
    },
    {
      "anonymous": false,
      "inputs": [
        {
          "indexed": false,
          "internalType": "address",
          "name": "account",
          "type": "address"
        }
      ],
      "name": "Paused",
      "type": "event"
    },
    {
      "anonymous": false,
      "inputs": [
        {
          "indexed": true,
          "internalType": "address",
          "name": "from",
          "type": "address"
        },
        {
          "indexed": true,
          "internalType": "address",
          "name": "to",
          "type": "address"
        },
        {
          "indexed": true,
          "internalType": "uint256",
          "name": "tokenId",
          "type": "uint256"
        }
      ],
      "name": "Transfer",
      "type": "event"
    },
    {
      "anonymous": false,
      "inputs": [
        {
          "indexed": false,
          "internalType": "address",
          "name": "account",
          "type": "address"
        }
      ],
      "name": "Unpaused",
      "type": "event"
    },
    {
      "anonymous": false,
      "inputs": [
        {
          "indexed": true,
          "internalType": "address",
          "name": "account",
          "type": "address"
        }
      ],
      "name": "nowNotOver",
      "type": "event"
    },
    {
      "anonymous": false,
      "inputs": [
        {
          "indexed": true,
          "internalType": "address",
          "name": "account",
          "type": "address"
        }
      ],
      "name": "nowOver",
      "type": "event"
    },
    {
      "anonymous": false,
      "inputs": [
        {
          "indexed": true,
          "internalType": "address",
          "name": "account",
          "type": "address"
        }
      ],
      "name": "withdrawNotStarted",
      "type": "event"
    },
    {
      "anonymous": false,
      "inputs": [
        {
          "indexed": true,
          "internalType": "address",
          "name": "account",
          "type": "address"
        },
        {
          "indexed": true,
          "internalType": "uint256",
          "name": "limitDate",
          "type": "uint256"
        },
        {
          "indexed": true,
          "internalType": "uint256",
          "name": "cashPrize",
          "type": "uint256"
        }
      ],
      "name": "withdrawStarted",
      "type": "event"
    },
    {
      "anonymous": false,
      "inputs": [
        {
          "indexed": true,
          "internalType": "address",
          "name": "to",
          "type": "address"
        },
        {
          "indexed": true,
          "internalType": "uint256",
          "name": "balance",
          "type": "uint256"
        },
        {
          "indexed": true,
          "internalType": "uint256",
          "name": "amount",
          "type": "uint256"
        }
      ],
      "name": "withdrawed",
      "type": "event"
    },
    {
      "inputs": [
        {
          "internalType": "address",
          "name": "",
          "type": "address"
        },
        {
          "internalType": "uint256",
          "name": "",
          "type": "uint256"
        }
      ],
      "name": "_authorizedMintingCard",
      "outputs": [
        {
          "internalType": "bool",
          "name": "",
          "type": "bool"
        }
      ],
      "stateMutability": "view",
      "type": "function"
    },
    {
      "inputs": [],
      "name": "_cashPrize",
      "outputs": [
        {
          "internalType": "uint256",
          "name": "",
          "type": "uint256"
        }
      ],
      "stateMutability": "view",
      "type": "function"
    },
    {
      "inputs": [
        {
          "internalType": "uint256",
          "name": "",
          "type": "uint256"
        }
      ],
      "name": "_countByNumber",
      "outputs": [
        {
          "internalType": "uint256",
          "name": "_value",
          "type": "uint256"
        }
      ],
      "stateMutability": "view",
      "type": "function"
    },
    {
      "inputs": [
        {
          "internalType": "address",
          "name": "",
          "type": "address"
        },
        {
          "internalType": "enum ItemsConfig.Quality",
          "name": "",
          "type": "uint8"
        }
      ],
      "name": "_giftedConsumable",
      "outputs": [
        {
          "internalType": "bool",
          "name": "",
          "type": "bool"
        }
      ],
      "stateMutability": "view",
      "type": "function"
    },
    {
      "inputs": [
        {
          "internalType": "enum ItemsConfig.Quality",
          "name": "",
          "type": "uint8"
        }
      ],
      "name": "_isSellable",
      "outputs": [
        {
          "internalType": "bool",
          "name": "",
          "type": "bool"
        }
      ],
      "stateMutability": "view",
      "type": "function"
    },
    {
      "inputs": [
        {
          "internalType": "uint256",
          "name": "",
          "type": "uint256"
        }
      ],
      "name": "_itemExists",
      "outputs": [
        {
          "internalType": "bool",
          "name": "",
          "type": "bool"
        }
      ],
      "stateMutability": "view",
      "type": "function"
    },
    {
      "inputs": [],
      "name": "_marketAddress",
      "outputs": [
        {
          "internalType": "address",
          "name": "",
          "type": "address"
        }
      ],
      "stateMutability": "view",
      "type": "function"
    },
    {
      "inputs": [
        {
          "internalType": "enum ItemsConfig.Quality",
          "name": "",
          "type": "uint8"
        }
      ],
      "name": "_maxByQuality",
      "outputs": [
        {
          "internalType": "uint256",
          "name": "",
          "type": "uint256"
        }
      ],
      "stateMutability": "view",
      "type": "function"
    },
    {
      "inputs": [
        {
          "internalType": "enum ItemsConfig.Quality",
          "name": "",
          "type": "uint8"
        }
      ],
      "name": "_mintPriceByQuality",
      "outputs": [
        {
          "internalType": "uint256",
          "name": "",
          "type": "uint256"
        }
      ],
      "stateMutability": "view",
      "type": "function"
    },
    {
      "inputs": [
        {
          "internalType": "uint256",
          "name": "",
          "type": "uint256"
        }
      ],
      "name": "_numberByTokenId",
      "outputs": [
        {
          "internalType": "uint256",
          "name": "",
          "type": "uint256"
        }
      ],
      "stateMutability": "view",
      "type": "function"
    },
    {
      "inputs": [],
      "name": "_openSales",
      "outputs": [
        {
          "internalType": "bool",
          "name": "",
          "type": "bool"
        }
      ],
      "stateMutability": "view",
      "type": "function"
    },
    {
      "inputs": [],
      "name": "_over",
      "outputs": [
        {
          "internalType": "bool",
          "name": "",
          "type": "bool"
        }
      ],
      "stateMutability": "view",
      "type": "function"
    },
    {
      "inputs": [
        {
          "internalType": "uint256",
          "name": "",
          "type": "uint256"
        }
      ],
      "name": "_qualityByNumber",
      "outputs": [
        {
          "internalType": "enum ItemsConfig.Quality",
          "name": "",
          "type": "uint8"
        }
      ],
      "stateMutability": "view",
      "type": "function"
    },
    {
      "inputs": [
        {
          "internalType": "enum ItemsConfig.Quality",
          "name": "",
          "type": "uint8"
        }
      ],
      "name": "_ratioByQuality",
      "outputs": [
        {
          "internalType": "uint256",
          "name": "",
          "type": "uint256"
        }
      ],
      "stateMutability": "view",
      "type": "function"
    },
    {
      "inputs": [],
      "name": "_ratioToPercent",
      "outputs": [
        {
          "internalType": "uint256",
          "name": "",
          "type": "uint256"
        }
      ],
      "stateMutability": "view",
      "type": "function"
    },
    {
      "inputs": [
        {
          "internalType": "address",
          "name": "",
          "type": "address"
        }
      ],
      "name": "_refunded",
      "outputs": [
        {
          "internalType": "bool",
          "name": "",
          "type": "bool"
        }
      ],
      "stateMutability": "view",
      "type": "function"
    },
    {
      "inputs": [
        {
          "internalType": "enum ItemsConfig.Quality",
          "name": "quality",
          "type": "uint8"
        },
        {
          "internalType": "bool",
          "name": "sellable",
          "type": "bool"
        }
      ],
      "name": "_setSellable",
      "outputs": [],
      "stateMutability": "nonpayable",
      "type": "function"
    },
    {
      "inputs": [],
      "name": "_tokenIdCounter",
      "outputs": [
        {
          "internalType": "uint256",
          "name": "_value",
          "type": "uint256"
        }
      ],
      "stateMutability": "view",
      "type": "function"
    },
    {
      "inputs": [
        {
          "internalType": "uint256",
          "name": "",
          "type": "uint256"
        }
      ],
      "name": "_tokenItemIndex",
      "outputs": [
        {
          "internalType": "uint256",
          "name": "",
          "type": "uint256"
        }
      ],
      "stateMutability": "view",
      "type": "function"
    },
    {
      "inputs": [
        {
          "internalType": "enum ItemsConfig.Quality",
          "name": "",
          "type": "uint8"
        }
      ],
      "name": "_typeByQuality",
      "outputs": [
        {
          "internalType": "enum ItemsConfig.TypeOfItem",
          "name": "",
          "type": "uint8"
        }
      ],
      "stateMutability": "view",
      "type": "function"
    },
    {
      "inputs": [
        {
          "internalType": "address",
          "name": "",
          "type": "address"
        },
        {
          "internalType": "uint256",
          "name": "",
          "type": "uint256"
        },
        {
          "internalType": "uint256",
          "name": "",
          "type": "uint256"
        }
      ],
      "name": "_userCards",
      "outputs": [
        {
          "internalType": "uint256",
          "name": "",
          "type": "uint256"
        }
      ],
      "stateMutability": "view",
      "type": "function"
    },
    {
      "inputs": [
        {
          "internalType": "address",
          "name": "",
          "type": "address"
        },
        {
          "internalType": "enum ItemsConfig.Quality",
          "name": "",
          "type": "uint8"
        },
        {
          "internalType": "uint256",
          "name": "",
          "type": "uint256"
        }
      ],
      "name": "_userConsumables",
      "outputs": [
        {
          "internalType": "uint256",
          "name": "",
          "type": "uint256"
        }
      ],
      "stateMutability": "view",
      "type": "function"
    },
    {
      "inputs": [
        {
          "internalType": "address",
          "name": "",
          "type": "address"
        }
      ],
      "name": "_whiteListed",
      "outputs": [
        {
          "internalType": "bool",
          "name": "",
          "type": "bool"
        }
      ],
      "stateMutability": "view",
      "type": "function"
    },
    {
      "inputs": [],
      "name": "_withdrawLength",
      "outputs": [
        {
          "internalType": "uint256",
          "name": "",
          "type": "uint256"
        }
      ],
      "stateMutability": "view",
      "type": "function"
    },
    {
      "inputs": [],
      "name": "_withdrawLimitDate",
      "outputs": [
        {
          "internalType": "uint256",
          "name": "",
          "type": "uint256"
        }
      ],
      "stateMutability": "view",
      "type": "function"
    },
    {
      "inputs": [],
      "name": "_withdrawStarted",
      "outputs": [
        {
          "internalType": "bool",
          "name": "",
          "type": "bool"
        }
      ],
      "stateMutability": "view",
      "type": "function"
    },
    {
      "inputs": [
        {
          "internalType": "address",
          "name": "to",
          "type": "address"
        },
        {
          "internalType": "uint256",
          "name": "tokenId",
          "type": "uint256"
        }
      ],
      "name": "approve",
      "outputs": [],
      "stateMutability": "nonpayable",
      "type": "function"
    },
    {
      "inputs": [
        {
          "internalType": "address",
          "name": "owner",
          "type": "address"
        }
      ],
      "name": "balanceOf",
      "outputs": [
        {
          "internalType": "uint256",
          "name": "",
          "type": "uint256"
        }
      ],
      "stateMutability": "view",
      "type": "function"
    },
    {
      "inputs": [],
      "name": "baseURI",
      "outputs": [
        {
          "internalType": "string",
          "name": "",
          "type": "string"
        }
      ],
      "stateMutability": "view",
      "type": "function"
    },
    {
      "inputs": [
        {
          "internalType": "uint256",
          "name": "tokenId",
          "type": "uint256"
        }
      ],
      "name": "burn",
      "outputs": [],
      "stateMutability": "nonpayable",
      "type": "function"
    },
    {
      "inputs": [],
      "name": "cleanContract",
      "outputs": [],
      "stateMutability": "payable",
      "type": "function"
    },
    {
      "inputs": [],
      "name": "contractBalance",
      "outputs": [
        {
          "internalType": "uint256",
          "name": "",
          "type": "uint256"
        }
      ],
      "stateMutability": "view",
      "type": "function"
    },
    {
      "inputs": [
        {
          "internalType": "uint256",
          "name": "tokenId",
          "type": "uint256"
        }
      ],
      "name": "getApproved",
      "outputs": [
        {
          "internalType": "address",
          "name": "",
          "type": "address"
        }
      ],
      "stateMutability": "view",
      "type": "function"
    },
    {
      "inputs": [
        {
          "internalType": "address",
          "name": "user",
          "type": "address"
        },
        {
          "internalType": "uint256",
          "name": "number",
          "type": "uint256"
        }
      ],
      "name": "getUserCards",
      "outputs": [
        {
          "internalType": "uint256[]",
          "name": "",
          "type": "uint256[]"
        }
      ],
      "stateMutability": "view",
      "type": "function"
    },
    {
      "inputs": [
        {
          "internalType": "address",
          "name": "user",
          "type": "address"
        },
        {
          "internalType": "enum ItemsConfig.Quality",
          "name": "quality",
          "type": "uint8"
        }
      ],
      "name": "getUserConsumables",
      "outputs": [
        {
          "internalType": "uint256[]",
          "name": "",
          "type": "uint256[]"
        }
      ],
      "stateMutability": "view",
      "type": "function"
    },
    {
      "inputs": [
        {
          "internalType": "address",
          "name": "owner",
          "type": "address"
        },
        {
          "internalType": "address",
          "name": "operator",
          "type": "address"
        }
      ],
      "name": "isApprovedForAll",
      "outputs": [
        {
          "internalType": "bool",
          "name": "",
          "type": "bool"
        }
      ],
      "stateMutability": "view",
      "type": "function"
    },
    {
      "inputs": [],
      "name": "name",
      "outputs": [
        {
          "internalType": "string",
          "name": "",
          "type": "string"
        }
      ],
      "stateMutability": "view",
      "type": "function"
    },
    {
      "inputs": [],
      "name": "owner",
      "outputs": [
        {
          "internalType": "address",
          "name": "",
          "type": "address"
        }
      ],
      "stateMutability": "view",
      "type": "function"
    },
    {
      "inputs": [
        {
          "internalType": "uint256",
          "name": "tokenId",
          "type": "uint256"
        }
      ],
      "name": "ownerOf",
      "outputs": [
        {
          "internalType": "address",
          "name": "",
          "type": "address"
        }
      ],
      "stateMutability": "view",
      "type": "function"
    },
    {
      "inputs": [],
      "name": "pause",
      "outputs": [],
      "stateMutability": "nonpayable",
      "type": "function"
    },
    {
      "inputs": [],
      "name": "paused",
      "outputs": [
        {
          "internalType": "bool",
          "name": "",
          "type": "bool"
        }
      ],
      "stateMutability": "view",
      "type": "function"
    },
    {
      "inputs": [],
      "name": "renounceOwnership",
      "outputs": [],
      "stateMutability": "nonpayable",
      "type": "function"
    },
    {
      "inputs": [
        {
          "internalType": "address",
          "name": "from",
          "type": "address"
        },
        {
          "internalType": "address",
          "name": "to",
          "type": "address"
        },
        {
          "internalType": "uint256",
          "name": "tokenId",
          "type": "uint256"
        }
      ],
      "name": "safeTransferFrom",
      "outputs": [],
      "stateMutability": "nonpayable",
      "type": "function"
    },
    {
      "inputs": [
        {
          "internalType": "address",
          "name": "from",
          "type": "address"
        },
        {
          "internalType": "address",
          "name": "to",
          "type": "address"
        },
        {
          "internalType": "uint256",
          "name": "tokenId",
          "type": "uint256"
        },
        {
          "internalType": "bytes",
          "name": "_data",
          "type": "bytes"
        }
      ],
      "name": "safeTransferFrom",
      "outputs": [],
      "stateMutability": "nonpayable",
      "type": "function"
    },
    {
      "inputs": [
        {
          "internalType": "address",
          "name": "operator",
          "type": "address"
        },
        {
          "internalType": "bool",
          "name": "approved",
          "type": "bool"
        }
      ],
      "name": "setApprovalForAll",
      "outputs": [],
      "stateMutability": "nonpayable",
      "type": "function"
    },
    {
      "inputs": [],
      "name": "setNotOver",
      "outputs": [],
      "stateMutability": "nonpayable",
      "type": "function"
    },
    {
      "inputs": [],
      "name": "setOver",
      "outputs": [],
      "stateMutability": "nonpayable",
      "type": "function"
    },
    {
      "inputs": [
        {
          "internalType": "uint256",
          "name": "price",
          "type": "uint256"
        },
        {
          "internalType": "enum ItemsConfig.Quality",
          "name": "quality",
          "type": "uint8"
        }
      ],
      "name": "setPriceByQuality",
      "outputs": [],
      "stateMutability": "nonpayable",
      "type": "function"
    },
    {
      "inputs": [
        {
          "internalType": "enum ItemsConfig.Quality[]",
          "name": "qualityOfNumber",
          "type": "uint8[]"
        }
      ],
      "name": "setQualityByNumber",
      "outputs": [],
      "stateMutability": "nonpayable",
      "type": "function"
    },
    {
      "inputs": [
        {
          "internalType": "enum ItemsConfig.TypeOfItem",
          "name": "typeOfItem",
          "type": "uint8"
        },
        {
          "internalType": "enum ItemsConfig.Quality",
          "name": "quality",
          "type": "uint8"
        }
      ],
      "name": "setTypeByQuality",
      "outputs": [],
      "stateMutability": "nonpayable",
      "type": "function"
    },
    {
      "inputs": [],
      "name": "setWithdrawNotStarted",
      "outputs": [],
      "stateMutability": "nonpayable",
      "type": "function"
    },
    {
      "inputs": [],
      "name": "setWithdrawStarted",
      "outputs": [],
      "stateMutability": "nonpayable",
      "type": "function"
    },
    {
      "inputs": [],
      "name": "symbol",
      "outputs": [
        {
          "internalType": "string",
          "name": "",
          "type": "string"
        }
      ],
      "stateMutability": "view",
      "type": "function"
    },
    {
      "inputs": [
        {
          "internalType": "address",
          "name": "from",
          "type": "address"
        },
        {
          "internalType": "address",
          "name": "to",
          "type": "address"
        },
        {
          "internalType": "uint256",
          "name": "tokenId",
          "type": "uint256"
        }
      ],
      "name": "transferFrom",
      "outputs": [],
      "stateMutability": "nonpayable",
      "type": "function"
    },
    {
      "inputs": [
        {
          "internalType": "address",
          "name": "newOwner",
          "type": "address"
        }
      ],
      "name": "transferOwnership",
      "outputs": [],
      "stateMutability": "nonpayable",
      "type": "function"
    },
    {
      "inputs": [],
      "name": "unpause",
      "outputs": [],
      "stateMutability": "nonpayable",
      "type": "function"
    },
    {
      "inputs": [],
      "name": "withdraw",
      "outputs": [],
      "stateMutability": "payable",
      "type": "function"
    },
    {
      "inputs": [
        {
          "internalType": "address",
          "name": "marketAddress",
          "type": "address"
        }
      ],
      "name": "setMarketAddress",
      "outputs": [],
      "stateMutability": "nonpayable",
      "type": "function"
    },
    {
      "inputs": [
        {
          "internalType": "address",
          "name": "user",
          "type": "address"
        },
        {
          "internalType": "uint256",
          "name": "number",
          "type": "uint256"
        },
        {
          "internalType": "bool",
          "name": "authorized",
          "type": "bool"
        }
      ],
      "name": "authorizeForMinting",
      "outputs": [],
      "stateMutability": "nonpayable",
      "type": "function"
    },
    {
      "inputs": [
        {
          "internalType": "address",
          "name": "user",
          "type": "address"
        },
        {
          "internalType": "enum ItemsConfig.Quality",
          "name": "quality",
          "type": "uint8"
        },
        {
          "internalType": "bool",
          "name": "authorized",
          "type": "bool"
        }
      ],
      "name": "giveConsumable",
      "outputs": [],
      "stateMutability": "nonpayable",
      "type": "function"
    },
    {
      "inputs": [
        {
          "internalType": "bool",
          "name": "opened",
          "type": "bool"
        }
      ],
      "name": "setOpenSales",
      "outputs": [],
      "stateMutability": "nonpayable",
      "type": "function"
    },
    {
      "inputs": [
        {
          "internalType": "address",
          "name": "user",
          "type": "address"
        }
      ],
      "name": "addToWhiteList",
      "outputs": [],
      "stateMutability": "nonpayable",
      "type": "function"
    },
    {
      "inputs": [
        {
          "internalType": "address",
          "name": "user",
          "type": "address"
        }
      ],
      "name": "removeFromWhiteList",
      "outputs": [],
      "stateMutability": "nonpayable",
      "type": "function"
    },
    {
      "inputs": [
        {
          "internalType": "uint256",
          "name": "number",
          "type": "uint256"
        }
      ],
      "name": "mintCards",
      "outputs": [],
      "stateMutability": "nonpayable",
      "type": "function"
    },
    {
      "inputs": [
        {
          "internalType": "uint256",
          "name": "number",
          "type": "uint256"
        }
      ],
      "name": "mintConsumables",
      "outputs": [],
      "stateMutability": "payable",
      "type": "function"
    },
    {
      "inputs": [
        {
          "internalType": "uint256",
          "name": "tokenId",
          "type": "uint256"
        }
      ],
      "name": "tokenURI",
      "outputs": [
        {
          "internalType": "string",
          "name": "",
          "type": "string"
        }
      ],
      "stateMutability": "view",
      "type": "function"
    },
    {
      "inputs": [
        {
          "internalType": "bytes4",
          "name": "interfaceId",
          "type": "bytes4"
        }
      ],
      "name": "supportsInterface",
      "outputs": [
        {
          "internalType": "bool",
          "name": "",
          "type": "bool"
        }
      ],
      "stateMutability": "view",
      "type": "function"
    }
  ],
  "bytecode": "0x60806040526102586018556305f5e1006019553480156200001f57600080fd5b5060405162008b8838038062008b888339818101604052810190620000459190620005be565b6040518060400160405280600d81526020017f477265656449736c616e645331000000000000000000000000000000000000008152506040518060400160405280600281526020017f47490000000000000000000000000000000000000000000000000000000000008152508160009080519060200190620000c992919062000479565b508060019080519060200190620000e292919062000479565b50505062000105620000f9620003ab60201b60201c565b620003b360201b60201c565b6000600760146101000a81548160ff021916908315150217905550600160128190555088602090805190602001906200014092919062000479565b5087600860006003600d8111156200015d576200015c620007c7565b5b600d811115620001725762000171620007c7565b5b81526020019081526020016000208190555087600860006004600d811115620001a0576200019f620007c7565b5b600d811115620001b557620001b4620007c7565b5b81526020019081526020016000208190555086600860006005600d811115620001e357620001e2620007c7565b5b600d811115620001f857620001f7620007c7565b5b81526020019081526020016000208190555085600860006006600d811115620002265762000225620007c7565b5b600d8111156200023b576200023a620007c7565b5b81526020019081526020016000208190555084600860006007600d811115620002695762000268620007c7565b5b600d8111156200027e576200027d620007c7565b5b81526020019081526020016000208190555083600860006008600d811115620002ac57620002ab620007c7565b5b600d811115620002c157620002c0620007c7565b5b81526020019081526020016000208190555082601360006006600d811115620002ef57620002ee620007c7565b5b600d811115620003045762000303620007c7565b5b81526020019081526020016000208190555081601360006007600d811115620003325762000331620007c7565b5b600d811115620003475762000346620007c7565b5b81526020019081526020016000208190555080601360006008600d811115620003755762000374620007c7565b5b600d8111156200038a5762000389620007c7565b5b81526020019081526020016000208190555050505050505050505062000893565b600033905090565b6000600760009054906101000a900473ffffffffffffffffffffffffffffffffffffffff16905081600760006101000a81548173ffffffffffffffffffffffffffffffffffffffff021916908373ffffffffffffffffffffffffffffffffffffffff1602179055508173ffffffffffffffffffffffffffffffffffffffff168173ffffffffffffffffffffffffffffffffffffffff167f8be0079c531659141344cd1fd0a4f28419497f9722a3daafe3b4186f6b6457e060405160405180910390a35050565b82805462000487906200075b565b90600052602060002090601f016020900481019282620004ab5760008555620004f7565b82601f10620004c657805160ff1916838001178555620004f7565b82800160010185558215620004f7579182015b82811115620004f6578251825591602001919060010190620004d9565b5b5090506200050691906200050a565b5090565b5b80821115620005255760008160009055506001016200050b565b5090565b6000620005406200053a84620006e5565b620006bc565b9050828152602081018484840111156200055f576200055e62000859565b5b6200056c84828562000725565b509392505050565b600082601f8301126200058c576200058b62000854565b5b81516200059e84826020860162000529565b91505092915050565b600081519050620005b88162000879565b92915050565b60008060008060008060008060006101208a8c031215620005e457620005e362000863565b5b60008a015167ffffffffffffffff8111156200060557620006046200085e565b5b620006138c828d0162000574565b9950506020620006268c828d01620005a7565b9850506040620006398c828d01620005a7565b97505060606200064c8c828d01620005a7565b96505060806200065f8c828d01620005a7565b95505060a0620006728c828d01620005a7565b94505060c0620006858c828d01620005a7565b93505060e0620006988c828d01620005a7565b925050610100620006ac8c828d01620005a7565b9150509295985092959850929598565b6000620006c8620006db565b9050620006d6828262000791565b919050565b6000604051905090565b600067ffffffffffffffff82111562000703576200070262000825565b5b6200070e8262000868565b9050602081019050919050565b6000819050919050565b60005b838110156200074557808201518184015260208101905062000728565b8381111562000755576000848401525b50505050565b600060028204905060018216806200077457607f821691505b602082108114156200078b576200078a620007f6565b5b50919050565b6200079c8262000868565b810181811067ffffffffffffffff82111715620007be57620007bd62000825565b5b80604052505050565b7f4e487b7100000000000000000000000000000000000000000000000000000000600052602160045260246000fd5b7f4e487b7100000000000000000000000000000000000000000000000000000000600052602260045260246000fd5b7f4e487b7100000000000000000000000000000000000000000000000000000000600052604160045260246000fd5b600080fd5b600080fd5b600080fd5b600080fd5b6000601f19601f8301169050919050565b62000884816200071b565b81146200089057600080fd5b50565b6182e580620008a36000396000f3fe6080604052600436106103e45760003560e01c806368707961116102085780639c07740211610118578063c87b56dd116100ab578063dcdb4db71161007a578063dcdb4db714610ef6578063e51ff36314610f33578063e985e9c514610f4a578063f2fde38b14610f87578063fae9261214610fb0576103e4565b8063c87b56dd14610e2a578063ce26e0c414610e67578063d266133d14610ea4578063d8b3947814610ecd576103e4565b8063acd2ba89116100e7578063acd2ba8914610d5e578063b668422b14610d9b578063b88d4fde14610dd8578063bad53d5714610e01576103e4565b80639c07740214610cb8578063a22cb46514610ce1578063a258757914610d0a578063a2afd84514610d21576103e4565b80638288c8681161019b5780638b7afe2e1161016a5780638b7afe2e14610bcf5780638da5cb5b14610bfa57806395d89b4114610c255780639848d90914610c505780639be6835314610c8d576103e4565b80638288c86814610b345780638456cb5914610b7157806384c4bd4b14610b885780638882235e14610bb3576103e4565b8063715018a6116101d7578063715018a614610aab57806376c98cfe14610ac25780637be842dd14610aff5780637faf0edf14610b09576103e4565b80636870796114610a015780636c0360eb14610a185780636ed64c5314610a4357806370a0823114610a6e576103e4565b8063331d0c9a1161030357806342966c68116102965780634e249ae2116102655780634e249ae2146108e257806354cd93d01461091f5780635516a7821461095c5780635c975abb146109995780636352211e146109c4576103e4565b806342966c681461082857806346ebc79f1461085157806347ee03941461088e5780634b5058c4146108b7576103e4565b80633ccfd60b116102d25780633ccfd60b146107b55780633f4ba83a146107bf578063407fc898146107d657806342842e0e146107ff576103e4565b8063331d0c9a1461070d578063335de35b1461073657806336aa4145146107615780633730405b1461079e576103e4565b8063081812fc1161037b5780631ec412ae1161034a5780631ec412ae1461065157806320cf9c991461067c57806323b872dd146106b95780632ba55114146106e2576103e4565b8063081812fc14610585578063095ea7b3146105c25780631445d244146105eb57806317de398614610628576103e4565b806306c8ffcd116103b757806306c8ffcd146104b757806306fdde03146104f4578063073bf2bc1461051f57806307e73e991461055c576103e4565b80630103a158146103e957806301bf66481461042657806301e4cbfe1461044f57806301ffc9a71461047a575b600080fd5b3480156103f557600080fd5b50610410600480360381019061040b9190615d33565b610fd9565b60405161041d9190616be7565b60405180910390f35b34801561043257600080fd5b5061044d60048036038101906104489190615d33565b610ff9565b005b34801561045b57600080fd5b506104646110d0565b60405161047191906171fa565b60405180910390f35b34801561048657600080fd5b506104a1600480360381019061049c91906160f8565b6110d6565b6040516104ae9190616be7565b60405180910390f35b3480156104c357600080fd5b506104de60048036038101906104d99190615eb6565b6110e8565b6040516104eb9190616bc5565b60405180910390f35b34801561050057600080fd5b506105096111b5565b6040516105169190616c38565b60405180910390f35b34801561052b57600080fd5b5061054660048036038101906105419190616152565b611247565b60405161055391906171fa565b60405180910390f35b34801561056857600080fd5b50610583600480360381019061057e9190615ef6565b61125f565b005b34801561059157600080fd5b506105ac60048036038101906105a791906161ff565b6112eb565b6040516105b99190616b5e565b60405180910390f35b3480156105ce57600080fd5b506105e960048036038101906105e49190615f9c565b611370565b005b3480156105f757600080fd5b50610612600480360381019061060d9190615f9c565b611488565b60405161061f9190616be7565b60405180910390f35b34801561063457600080fd5b5061064f600480360381019061064a9190615fdc565b6114b7565b005b34801561065d57600080fd5b50610666611543565b60405161067391906171fa565b60405180910390f35b34801561068857600080fd5b506106a3600480360381019061069e91906161ff565b611549565b6040516106b09190616be7565b60405180910390f35b3480156106c557600080fd5b506106e060048036038101906106db9190615da0565b611569565b005b3480156106ee57600080fd5b506106f76115c9565b6040516107049190616be7565b60405180910390f35b34801561071957600080fd5b50610734600480360381019061072f91906161ff565b6115dc565b005b34801561074257600080fd5b5061074b611a70565b60405161075891906171fa565b60405180910390f35b34801561076d57600080fd5b50610788600480360381019061078391906161ff565b611a76565b60405161079591906171fa565b60405180910390f35b3480156107aa57600080fd5b506107b3611a94565b005b6107bd611bd5565b005b3480156107cb57600080fd5b506107d4611f89565b005b3480156107e257600080fd5b506107fd60048036038101906107f8919061622c565b612065565b005b34801561080b57600080fd5b5061082660048036038101906108219190615da0565b612121565b005b34801561083457600080fd5b5061084f600480360381019061084a91906161ff565b612141565b005b34801561085d57600080fd5b5061087860048036038101906108739190616152565b61219d565b6040516108859190616c1d565b60405180910390f35b34801561089a57600080fd5b506108b560048036038101906108b09190615d33565b6121bd565b005b3480156108c357600080fd5b506108cc612294565b6040516108d991906171fa565b60405180910390f35b3480156108ee57600080fd5b5061090960048036038101906109049190615f9c565b61229a565b6040516109169190616bc5565b60405180910390f35b34801561092b57600080fd5b5061094660048036038101906109419190616152565b612343565b6040516109539190616be7565b60405180910390f35b34801561096857600080fd5b50610983600480360381019061097e91906161ff565b612363565b6040516109909190616c02565b60405180910390f35b3480156109a557600080fd5b506109ae612383565b6040516109bb9190616be7565b60405180910390f35b3480156109d057600080fd5b506109eb60048036038101906109e691906161ff565b61239a565b6040516109f89190616b5e565b60405180910390f35b348015610a0d57600080fd5b50610a1661244c565b005b348015610a2457600080fd5b50610a2d6125b2565b604051610a3a9190616c38565b60405180910390f35b348015610a4f57600080fd5b50610a58612640565b604051610a659190616be7565b60405180910390f35b348015610a7a57600080fd5b50610a956004803603810190610a909190615d33565b612653565b604051610aa291906171fa565b60405180910390f35b348015610ab757600080fd5b50610ac061270b565b005b348015610ace57600080fd5b50610ae96004803603810190610ae49190615f49565b612793565b604051610af691906171fa565b60405180910390f35b610b076127d1565b005b348015610b1557600080fd5b50610b1e612a10565b604051610b2b9190616b5e565b60405180910390f35b348015610b4057600080fd5b50610b5b6004803603810190610b56919061602f565b612a36565b604051610b6891906171fa565b60405180910390f35b348015610b7d57600080fd5b50610b86612a74565b005b348015610b9457600080fd5b50610b9d612afa565b604051610baa91906171fa565b60405180910390f35b610bcd6004803603810190610bc891906161ff565b612b06565b005b348015610bdb57600080fd5b50610be4613194565b604051610bf191906171fa565b60405180910390f35b348015610c0657600080fd5b50610c0f61319c565b604051610c1c9190616b5e565b60405180910390f35b348015610c3157600080fd5b50610c3a6131c6565b604051610c479190616c38565b60405180910390f35b348015610c5c57600080fd5b50610c776004803603810190610c729190616152565b613258565b604051610c8491906171fa565b60405180910390f35b348015610c9957600080fd5b50610ca2613270565b604051610caf9190616be7565b60405180910390f35b348015610cc457600080fd5b50610cdf6004803603810190610cda919061617f565b613283565b005b348015610ced57600080fd5b50610d086004803603810190610d039190615e76565b613352565b005b348015610d1657600080fd5b50610d1f613368565b005b348015610d2d57600080fd5b50610d486004803603810190610d439190615eb6565b613453565b604051610d559190616be7565b60405180910390f35b348015610d6a57600080fd5b50610d856004803603810190610d809190615d33565b613482565b604051610d929190616be7565b60405180910390f35b348015610da757600080fd5b50610dc26004803603810190610dbd91906161ff565b6134a2565b604051610dcf91906171fa565b60405180910390f35b348015610de457600080fd5b50610dff6004803603810190610dfa9190615df3565b6134ba565b005b348015610e0d57600080fd5b50610e286004803603810190610e239190616082565b61351c565b005b348015610e3657600080fd5b50610e516004803603810190610e4c91906161ff565b61363c565b604051610e5e9190616c38565b60405180910390f35b348015610e7357600080fd5b50610e8e6004803603810190610e8991906161ff565b61364e565b604051610e9b91906171fa565b60405180910390f35b348015610eb057600080fd5b50610ecb6004803603810190610ec691906161bf565b613666565b005b348015610ed957600080fd5b50610ef46004803603810190610eef91906160cb565b613745565b005b348015610f0257600080fd5b50610f1d6004803603810190610f189190616152565b6137de565b604051610f2a91906171fa565b60405180910390f35b348015610f3f57600080fd5b50610f486137f6565b005b348015610f5657600080fd5b50610f716004803603810190610f6c9190615d60565b61392f565b604051610f7e9190616be7565b60405180910390f35b348015610f9357600080fd5b50610fae6004803603810190610fa99190615d33565b6139c3565b005b348015610fbc57600080fd5b50610fd76004803603810190610fd29190615d33565b613abb565b005b601b6020528060005260406000206000915054906101000a900460ff1681565b611001613b7b565b73ffffffffffffffffffffffffffffffffffffffff1661101f61319c565b73ffffffffffffffffffffffffffffffffffffffff1614611075576040517f08c379a000000000000000000000000000000000000000000000000000000000815260040161106c90616f9a565b60405180910390fd5b6000601b60008373ffffffffffffffffffffffffffffffffffffffff1673ffffffffffffffffffffffffffffffffffffffff16815260200190815260200160002060006101000a81548160ff02191690831515021790555050565b60175481565b60006110e182613b83565b9050919050565b6060601060008473ffffffffffffffffffffffffffffffffffffffff1673ffffffffffffffffffffffffffffffffffffffff168152602001908152602001600020600083600d81111561113e5761113d61766e565b5b600d8111156111505761114f61766e565b5b81526020019081526020016000208054806020026020016040519081016040528092919081815260200182805480156111a857602002820191906000526020600020905b815481526020019060010190808311611194575b5050505050905092915050565b6060600080546111c490617533565b80601f01602080910402602001604051908101604052809291908181526020018280546111f090617533565b801561123d5780601f106112125761010080835404028352916020019161123d565b820191906000526020600020905b81548152906001019060200180831161122057829003601f168201915b5050505050905090565b60136020528060005260406000206000915090505481565b611267613b7b565b73ffffffffffffffffffffffffffffffffffffffff1661128561319c565b73ffffffffffffffffffffffffffffffffffffffff16146112db576040517f08c379a00000000000000000000000000000000000000000000000000000000081526004016112d290616f9a565b60405180910390fd5b6112e6838383613c65565b505050565b60006112f682613cf6565b611335576040517f08c379a000000000000000000000000000000000000000000000000000000000815260040161132c90616f7a565b60405180910390fd5b6004600083815260200190815260200160002060009054906101000a900473ffffffffffffffffffffffffffffffffffffffff169050919050565b600061137b8261239a565b90508073ffffffffffffffffffffffffffffffffffffffff168373ffffffffffffffffffffffffffffffffffffffff1614156113ec576040517f08c379a00000000000000000000000000000000000000000000000000000000081526004016113e390616ffa565b60405180910390fd5b8073ffffffffffffffffffffffffffffffffffffffff1661140b613b7b565b73ffffffffffffffffffffffffffffffffffffffff16148061143a575061143981611434613b7b565b61392f565b5b611479576040517f08c379a000000000000000000000000000000000000000000000000000000000815260040161147090616e5a565b60405180910390fd5b6114838383613d62565b505050565b601c6020528160005260406000206020528060005260406000206000915091509054906101000a900460ff1681565b6114bf613b7b565b73ffffffffffffffffffffffffffffffffffffffff166114dd61319c565b73ffffffffffffffffffffffffffffffffffffffff1614611533576040517f08c379a000000000000000000000000000000000000000000000000000000000815260040161152a90616f9a565b60405180910390fd5b61153e838383613e1b565b505050565b60185481565b600e6020528060005260406000206000915054906101000a900460ff1681565b61157a611574613b7b565b82613e88565b6115b9576040517f08c379a00000000000000000000000000000000000000000000000000000000081526004016115b09061705a565b60405180910390fd5b6115c4838383613f66565b505050565b601660009054906101000a900460ff1681565b6000600b600083815260200190815260200160002060009054906101000a900460ff1690506000600c600083600d81111561161a5761161961766e565b5b600d81111561162c5761162b61766e565b5b815260200190815260200160002060009054906101000a900460ff169050600033905060011515600e600086815260200190815260200160002060009054906101000a900460ff161515146116b6576040517f08c379a00000000000000000000000000000000000000000000000000000000081526004016116ad9061701a565b60405180910390fd5b60011515601c60008373ffffffffffffffffffffffffffffffffffffffff1673ffffffffffffffffffffffffffffffffffffffff168152602001908152602001600020600086815260200190815260200160002060009054906101000a900460ff1615151461175a576040517f08c379a0000000000000000000000000000000000000000000000000000000008152600401611751906170da565b60405180910390fd5b60028081111561176d5761176c61766e565b5b8260028111156117805761177f61766e565b5b146117c0576040517f08c379a00000000000000000000000000000000000000000000000000000000081526004016117b79061713a565b60405180910390fd5b6008600084600d8111156117d7576117d661766e565b5b600d8111156117e9576117e861766e565b5b815260200190815260200160002054611813601a6000878152602001908152602001600020613fa2565b10611853576040517f08c379a000000000000000000000000000000000000000000000000000000000815260040161184a90616eda565b60405180910390fd5b6003600d8111156118675761186661766e565b5b83600d81111561187a5761187961766e565b5b14806118aa57506004600d8111156118955761189461766e565b5b83600d8111156118a8576118a761766e565b5b145b806118d957506005600d8111156118c4576118c361766e565b5b83600d8111156118d7576118d661766e565b5b145b8061190857506006600d8111156118f3576118f261766e565b5b83600d8111156119065761190561766e565b5b145b8061193757506007600d8111156119225761192161766e565b5b83600d8111156119355761193461766e565b5b145b8061196657506008600d8111156119515761195061766e565b5b83600d8111156119645761196361766e565b5b145b6119a5576040517f08c379a000000000000000000000000000000000000000000000000000000000815260040161199c90616fda565b60405180910390fd5b60006119b1601f613fa2565b905060006119be86613fb0565b6040516020016119ce9190616b26565b604051602081830303815290604052905085600d600084815260200190815260200160002081905550611a018383614111565b611a2d602160009054906101000a900473ffffffffffffffffffffffffffffffffffffffff1683613d62565b611a3983876000613e1b565b611a43828261412f565b611a5e601a60008881526020019081526020016000206141a3565b611a68601f6141a3565b505050505050565b60155481565b601a6020528060005260406000206000915090508060000154905081565b611a9c613b7b565b73ffffffffffffffffffffffffffffffffffffffff16611aba61319c565b73ffffffffffffffffffffffffffffffffffffffff1614611b10576040517f08c379a0000000000000000000000000000000000000000000000000000000008152600401611b0790616f9a565b60405180910390fd5b60001515601660019054906101000a900460ff16151514611b66576040517f08c379a0000000000000000000000000000000000000000000000000000000008152600401611b5d9061703a565b60405180910390fd5b611b6e6141b9565b6000601660006101000a81548160ff021916908315150217905550611b91613b7b565b73ffffffffffffffffffffffffffffffffffffffff167f9086411bd6e485508f26caef41c22aabee5025a9fdde4cd1d03fbc4dd0cdeb2c60405160405180910390a2565b60026012541415611c1b576040517f08c379a0000000000000000000000000000000000000000000000000000000008152600401611c129061719a565b60405180910390fd5b600260128190555060011515601660009054906101000a900460ff16151514611c79576040517f08c379a0000000000000000000000000000000000000000000000000000000008152600401611c7090616d1a565b60405180910390fd5b60011515601660019054906101000a900460ff16151514611ccf576040517f08c379a0000000000000000000000000000000000000000000000000000000008152600401611cc6906170fa565b60405180910390fd5b60011515601460003373ffffffffffffffffffffffffffffffffffffffff1673ffffffffffffffffffffffffffffffffffffffff16815260200190815260200160002060009054906101000a900460ff1615151415611d63576040517f08c379a0000000000000000000000000000000000000000000000000000000008152600401611d5a9061707a565b60405180910390fd5b600080600090505b60648111611e4d576000600f60003373ffffffffffffffffffffffffffffffffffffffff1673ffffffffffffffffffffffffffffffffffffffff16815260200190815260200160002060008381526020019081526020016000208054905014611e3a576000600b600083815260200190815260200160002060009054906101000a900460ff1690506013600082600d811115611e0a57611e0961766e565b5b600d811115611e1c57611e1b61766e565b5b81526020019081526020016000205483611e36919061731e565b9250505b8080611e4590617596565b915050611d6b565b506000811415611e92576040517f08c379a0000000000000000000000000000000000000000000000000000000008152600401611e899061715a565b60405180910390fd5b6000479050600060195483601554611eaa91906173a5565b611eb49190617374565b90506001601460003373ffffffffffffffffffffffffffffffffffffffff1673ffffffffffffffffffffffffffffffffffffffff16815260200190815260200160002060006101000a81548160ff021916908315150217905550611f37813373ffffffffffffffffffffffffffffffffffffffff1661425b90919063ffffffff16565b80823373ffffffffffffffffffffffffffffffffffffffff167f712eabc474638dce3d30390bd156f0358c12e7b9f6c82599740ba2bdac7f1bd060405160405180910390a45050506001601281905550565b611f91613b7b565b73ffffffffffffffffffffffffffffffffffffffff16611faf61319c565b73ffffffffffffffffffffffffffffffffffffffff1614612005576040517f08c379a0000000000000000000000000000000000000000000000000000000008152600401611ffc90616f9a565b60405180910390fd5b60001515601660009054906101000a900460ff1615151461205b576040517f08c379a00000000000000000000000000000000000000000000000000000000081526004016120529061717a565b60405180910390fd5b6120636141b9565b565b61206d613b7b565b73ffffffffffffffffffffffffffffffffffffffff1661208b61319c565b73ffffffffffffffffffffffffffffffffffffffff16146120e1576040517f08c379a00000000000000000000000000000000000000000000000000000000081526004016120d890616f9a565b60405180910390fd5b816009600083600d8111156120f9576120f861766e565b5b600d81111561210b5761210a61766e565b5b8152602001908152602001600020819055505050565b61213c838383604051806020016040528060008152506134ba565b505050565b61215261214c613b7b565b82613e88565b612191576040517f08c379a0000000000000000000000000000000000000000000000000000000008152600401612188906171ba565b60405180910390fd5b61219a8161434f565b50565b600c6020528060005260406000206000915054906101000a900460ff1681565b6121c5613b7b565b73ffffffffffffffffffffffffffffffffffffffff166121e361319c565b73ffffffffffffffffffffffffffffffffffffffff1614612239576040517f08c379a000000000000000000000000000000000000000000000000000000000815260040161223090616f9a565b60405180910390fd5b6001601b60008373ffffffffffffffffffffffffffffffffffffffff1673ffffffffffffffffffffffffffffffffffffffff16815260200190815260200160002060006101000a81548160ff02191690831515021790555050565b60195481565b6060600f60008473ffffffffffffffffffffffffffffffffffffffff1673ffffffffffffffffffffffffffffffffffffffff168152602001908152602001600020600083815260200190815260200160002080548060200260200160405190810160405280929190818152602001828054801561233657602002820191906000526020600020905b815481526020019060010190808311612322575b5050505050905092915050565b600a6020528060005260406000206000915054906101000a900460ff1681565b600b6020528060005260406000206000915054906101000a900460ff1681565b6000600760149054906101000a900460ff16905090565b6000806002600084815260200190815260200160002060009054906101000a900473ffffffffffffffffffffffffffffffffffffffff169050600073ffffffffffffffffffffffffffffffffffffffff168173ffffffffffffffffffffffffffffffffffffffff161415612443576040517f08c379a000000000000000000000000000000000000000000000000000000000815260040161243a90616eba565b60405180910390fd5b80915050919050565b612454613b7b565b73ffffffffffffffffffffffffffffffffffffffff1661247261319c565b73ffffffffffffffffffffffffffffffffffffffff16146124c8576040517f08c379a00000000000000000000000000000000000000000000000000000000081526004016124bf90616f9a565b60405180910390fd5b60011515601660009054906101000a900460ff1615151461251e576040517f08c379a000000000000000000000000000000000000000000000000000000000815260040161251590616d1a565b60405180910390fd5b6001601660016101000a81548160ff02191690831515021790555060185442612547919061731e565b60178190555060024761255a9190617374565b60158190555060155460175461256e613b7b565b73ffffffffffffffffffffffffffffffffffffffff167f426bed13f27def8e14c826ba1977c6018e13a9b7fe49dfd5ad4c1148d75e99c160405160405180910390a4565b602080546125bf90617533565b80601f01602080910402602001604051908101604052809291908181526020018280546125eb90617533565b80156126385780601f1061260d57610100808354040283529160200191612638565b820191906000526020600020905b81548152906001019060200180831161261b57829003601f168201915b505050505081565b601e60009054906101000a900460ff1681565b60008073ffffffffffffffffffffffffffffffffffffffff168273ffffffffffffffffffffffffffffffffffffffff1614156126c4576040517f08c379a00000000000000000000000000000000000000000000000000000000081526004016126bb90616e9a565b60405180910390fd5b600360008373ffffffffffffffffffffffffffffffffffffffff1673ffffffffffffffffffffffffffffffffffffffff168152602001908152602001600020549050919050565b612713613b7b565b73ffffffffffffffffffffffffffffffffffffffff1661273161319c565b73ffffffffffffffffffffffffffffffffffffffff1614612787576040517f08c379a000000000000000000000000000000000000000000000000000000000815260040161277e90616f9a565b60405180910390fd5b612791600061444b565b565b601060205282600052604060002060205281600052604060002081815481106127bb57600080fd5b9060005260206000200160009250925050505481565b6127d9613b7b565b73ffffffffffffffffffffffffffffffffffffffff166127f761319c565b73ffffffffffffffffffffffffffffffffffffffff161461284d576040517f08c379a000000000000000000000000000000000000000000000000000000000815260040161284490616f9a565b60405180910390fd5b60026012541415612893576040517f08c379a000000000000000000000000000000000000000000000000000000000815260040161288a9061719a565b60405180910390fd5b600260128190555060011515601660009054906101000a900460ff161515146128f1576040517f08c379a00000000000000000000000000000000000000000000000000000000081526004016128e890616d1a565b60405180910390fd5b60011515601660019054906101000a900460ff16151514612947576040517f08c379a000000000000000000000000000000000000000000000000000000000815260040161293e906171da565b60405180910390fd5b60175442101561298c576040517f08c379a000000000000000000000000000000000000000000000000000000000815260040161298390616e7a565b60405180910390fd5b600047905060004790506129bf813373ffffffffffffffffffffffffffffffffffffffff1661425b90919063ffffffff16565b80823373ffffffffffffffffffffffffffffffffffffffff167f712eabc474638dce3d30390bd156f0358c12e7b9f6c82599740ba2bdac7f1bd060405160405180910390a450506001601281905550565b602160009054906101000a900473ffffffffffffffffffffffffffffffffffffffff1681565b600f6020528260005260406000206020528160005260406000208181548110612a5e57600080fd5b9060005260206000200160009250925050505481565b612a7c613b7b565b73ffffffffffffffffffffffffffffffffffffffff16612a9a61319c565b73ffffffffffffffffffffffffffffffffffffffff1614612af0576040517f08c379a0000000000000000000000000000000000000000000000000000000008152600401612ae790616f9a565b60405180910390fd5b612af8614511565b565b601f8060000154905081565b6000600b600083815260200190815260200160002060009054906101000a900460ff1690506000600c600083600d811115612b4457612b4361766e565b5b600d811115612b5657612b5561766e565b5b815260200190815260200160002060009054906101000a900460ff169050600033905060011515600e600086815260200190815260200160002060009054906101000a900460ff16151514612be0576040517f08c379a0000000000000000000000000000000000000000000000000000000008152600401612bd790616d3a565b60405180910390fd5b60016002811115612bf457612bf361766e565b5b826002811115612c0757612c0661766e565b5b1480612c37575060006002811115612c2257612c2161766e565b5b826002811115612c3557612c3461766e565b5b145b612c76576040517f08c379a0000000000000000000000000000000000000000000000000000000008152600401612c6d906170ba565b60405180910390fd5b60001515601d60008373ffffffffffffffffffffffffffffffffffffffff1673ffffffffffffffffffffffffffffffffffffffff168152602001908152602001600020600085600d811115612cce57612ccd61766e565b5b600d811115612ce057612cdf61766e565b5b815260200190815260200160002060009054906101000a900460ff1615151415612eb257346009600085600d811115612d1c57612d1b61766e565b5b600d811115612d2e57612d2d61766e565b5b81526020019081526020016000205414612d7d576040517f08c379a0000000000000000000000000000000000000000000000000000000008152600401612d749061711a565b60405180910390fd5b600a600084600d811115612d9457612d9361766e565b5b600d811115612da657612da561766e565b5b815260200190815260200160002060009054906101000a900460ff16612e01576040517f08c379a0000000000000000000000000000000000000000000000000000000008152600401612df89061709a565b60405180910390fd5b60001515601e60009054906101000a900460ff1615151415612eb15760011515601b60008373ffffffffffffffffffffffffffffffffffffffff1673ffffffffffffffffffffffffffffffffffffffff16815260200190815260200160002060009054906101000a900460ff16151514612eb0576040517f08c379a0000000000000000000000000000000000000000000000000000000008152600401612ea790616dda565b60405180910390fd5b5b5b60006002811115612ec657612ec561766e565b5b826002811115612ed957612ed861766e565b5b1415612fa9576000600d811115612ef357612ef261766e565b5b83600d811115612f0657612f0561766e565b5b1480612f3657506001600d811115612f2157612f2061766e565b5b83600d811115612f3457612f3361766e565b5b145b80612f6557506002600d811115612f5057612f4f61766e565b5b83600d811115612f6357612f6261766e565b5b145b612fa4576040517f08c379a0000000000000000000000000000000000000000000000000000000008152600401612f9b90616c7a565b60405180910390fd5b6130cc565b6009600d811115612fbd57612fbc61766e565b5b83600d811115612fd057612fcf61766e565b5b14806130005750600a600d811115612feb57612fea61766e565b5b83600d811115612ffe57612ffd61766e565b5b145b8061302f5750600b600d81111561301a5761301961766e565b5b83600d81111561302d5761302c61766e565b5b145b8061305e5750600c600d8111156130495761304861766e565b5b83600d81111561305c5761305b61766e565b5b145b8061308c5750600d808111156130775761307661766e565b5b83600d81111561308a5761308961766e565b5b145b6130cb576040517f08c379a00000000000000000000000000000000000000000000000000000000081526004016130c290616f3a565b60405180910390fd5b5b60006130d8601f613fa2565b9050600084600d8111156130ef576130ee61766e565b5b905060006130fc82613fb0565b60405160200161310c9190616ad9565b604051602081830303815290604052905086600d60008581526020019081526020016000208190555061313f8484614111565b61316b602160009054906101000a900473ffffffffffffffffffffffffffffffffffffffff1684613d62565b61317784876000613c65565b613181838261412f565b61318b601f6141a3565b50505050505050565b600047905090565b6000600760009054906101000a900473ffffffffffffffffffffffffffffffffffffffff16905090565b6060600180546131d590617533565b80601f016020809104026020016040519081016040528092919081815260200182805461320190617533565b801561324e5780601f106132235761010080835404028352916020019161324e565b820191906000526020600020905b81548152906001019060200180831161323157829003601f168201915b5050505050905090565b60096020528060005260406000206000915090505481565b601660019054906101000a900460ff1681565b61328b613b7b565b73ffffffffffffffffffffffffffffffffffffffff166132a961319c565b73ffffffffffffffffffffffffffffffffffffffff16146132ff576040517f08c379a00000000000000000000000000000000000000000000000000000000081526004016132f690616f9a565b60405180910390fd5b80600a600084600d8111156133175761331661766e565b5b600d8111156133295761332861766e565b5b815260200190815260200160002060006101000a81548160ff0219169083151502179055505050565b61336461335d613b7b565b83836145b4565b5050565b613370613b7b565b73ffffffffffffffffffffffffffffffffffffffff1661338e61319c565b73ffffffffffffffffffffffffffffffffffffffff16146133e4576040517f08c379a00000000000000000000000000000000000000000000000000000000081526004016133db90616f9a565b60405180910390fd5b6133ec614511565b6001601660006101000a81548160ff02191690831515021790555061340f613b7b565b73ffffffffffffffffffffffffffffffffffffffff167f47a09fe6b5587db5e8c4c335fc890bc5f3cc7af307e7e301cf74f6b045e2c21660405160405180910390a2565b601d6020528160005260406000206020528060005260406000206000915091509054906101000a900460ff1681565b60146020528060005260406000206000915054906101000a900460ff1681565b600d6020528060005260406000206000915090505481565b6134cb6134c5613b7b565b83613e88565b61350a576040517f08c379a00000000000000000000000000000000000000000000000000000000081526004016135019061705a565b60405180910390fd5b61351684848484614721565b50505050565b613524613b7b565b73ffffffffffffffffffffffffffffffffffffffff1661354261319c565b73ffffffffffffffffffffffffffffffffffffffff1614613598576040517f08c379a000000000000000000000000000000000000000000000000000000000815260040161358f90616f9a565b60405180910390fd5b60005b8151811015613638578181815181106135b7576135b66176fb565b5b6020026020010151600b600083815260200190815260200160002060006101000a81548160ff0219169083600d8111156135f4576135f361766e565b5b02179055506001600e600083815260200190815260200160002060006101000a81548160ff021916908315150217905550808061363090617596565b91505061359b565b5050565b60606136478261477d565b9050919050565b60116020528060005260406000206000915090505481565b61366e613b7b565b73ffffffffffffffffffffffffffffffffffffffff1661368c61319c565b73ffffffffffffffffffffffffffffffffffffffff16146136e2576040517f08c379a00000000000000000000000000000000000000000000000000000000081526004016136d990616f9a565b60405180910390fd5b81600c600083600d8111156136fa576136f961766e565b5b600d81111561370c5761370b61766e565b5b815260200190815260200160002060006101000a81548160ff0219169083600281111561373c5761373b61766e565b5b02179055505050565b61374d613b7b565b73ffffffffffffffffffffffffffffffffffffffff1661376b61319c565b73ffffffffffffffffffffffffffffffffffffffff16146137c1576040517f08c379a00000000000000000000000000000000000000000000000000000000081526004016137b890616f9a565b60405180910390fd5b80601e60006101000a81548160ff02191690831515021790555050565b60086020528060005260406000206000915090505481565b6137fe613b7b565b73ffffffffffffffffffffffffffffffffffffffff1661381c61319c565b73ffffffffffffffffffffffffffffffffffffffff1614613872576040517f08c379a000000000000000000000000000000000000000000000000000000000815260040161386990616f9a565b60405180910390fd5b60011515601660009054906101000a900460ff161515146138c8576040517f08c379a00000000000000000000000000000000000000000000000000000000081526004016138bf90616d1a565b60405180910390fd5b6000601660016101000a81548160ff0219169083151502179055506138eb613b7b565b73ffffffffffffffffffffffffffffffffffffffff167ff9af5dc79a2465c79cca065d74c9bac6c2e6ea05c8f3ec79cb3d1d24a25de74c60405160405180910390a2565b6000600560008473ffffffffffffffffffffffffffffffffffffffff1673ffffffffffffffffffffffffffffffffffffffff16815260200190815260200160002060008373ffffffffffffffffffffffffffffffffffffffff1673ffffffffffffffffffffffffffffffffffffffff16815260200190815260200160002060009054906101000a900460ff16905092915050565b6139cb613b7b565b73ffffffffffffffffffffffffffffffffffffffff166139e961319c565b73ffffffffffffffffffffffffffffffffffffffff1614613a3f576040517f08c379a0000000000000000000000000000000000000000000000000000000008152600401613a3690616f9a565b60405180910390fd5b600073ffffffffffffffffffffffffffffffffffffffff168173ffffffffffffffffffffffffffffffffffffffff161415613aaf576040517f08c379a0000000000000000000000000000000000000000000000000000000008152600401613aa690616cba565b60405180910390fd5b613ab88161444b565b50565b613ac3613b7b565b73ffffffffffffffffffffffffffffffffffffffff16613ae161319c565b73ffffffffffffffffffffffffffffffffffffffff1614613b37576040517f08c379a0000000000000000000000000000000000000000000000000000000008152600401613b2e90616f9a565b60405180910390fd5b80602160006101000a81548173ffffffffffffffffffffffffffffffffffffffff021916908373ffffffffffffffffffffffffffffffffffffffff16021790555050565b600033905090565b60007f80ac58cd000000000000000000000000000000000000000000000000000000007bffffffffffffffffffffffffffffffffffffffffffffffffffffffff1916827bffffffffffffffffffffffffffffffffffffffffffffffffffffffff19161480613c4e57507f5b5e139f000000000000000000000000000000000000000000000000000000007bffffffffffffffffffffffffffffffffffffffffffffffffffffffff1916827bffffffffffffffffffffffffffffffffffffffffffffffffffffffff1916145b80613c5e5750613c5d826148cf565b5b9050919050565b80601d60008573ffffffffffffffffffffffffffffffffffffffff1673ffffffffffffffffffffffffffffffffffffffff168152602001908152602001600020600084600d811115613cba57613cb961766e565b5b600d811115613ccc57613ccb61766e565b5b815260200190815260200160002060006101000a81548160ff021916908315150217905550505050565b60008073ffffffffffffffffffffffffffffffffffffffff166002600084815260200190815260200160002060009054906101000a900473ffffffffffffffffffffffffffffffffffffffff1673ffffffffffffffffffffffffffffffffffffffff1614159050919050565b816004600083815260200190815260200160002060006101000a81548173ffffffffffffffffffffffffffffffffffffffff021916908373ffffffffffffffffffffffffffffffffffffffff160217905550808273ffffffffffffffffffffffffffffffffffffffff16613dd58361239a565b73ffffffffffffffffffffffffffffffffffffffff167f8c5be1e5ebec7d5bd14f71427d1e84f3dd0314c0f7b2291e5b200ac8c7c3b92560405160405180910390a45050565b80601c60008573ffffffffffffffffffffffffffffffffffffffff1673ffffffffffffffffffffffffffffffffffffffff168152602001908152602001600020600084815260200190815260200160002060006101000a81548160ff021916908315150217905550505050565b6000613e9382613cf6565b613ed2576040517f08c379a0000000000000000000000000000000000000000000000000000000008152600401613ec990616e1a565b60405180910390fd5b6000613edd8361239a565b90508073ffffffffffffffffffffffffffffffffffffffff168473ffffffffffffffffffffffffffffffffffffffff161480613f4c57508373ffffffffffffffffffffffffffffffffffffffff16613f34846112eb565b73ffffffffffffffffffffffffffffffffffffffff16145b80613f5d5750613f5c818561392f565b5b91505092915050565b613f71838383614939565b613f9d602160009054906101000a900473ffffffffffffffffffffffffffffffffffffffff1682613d62565b505050565b600081600001549050919050565b60606000821415613ff8576040518060400160405280600181526020017f3000000000000000000000000000000000000000000000000000000000000000815250905061410c565b600082905060005b6000821461402a57808061401390617596565b915050600a826140239190617374565b9150614000565b60008167ffffffffffffffff8111156140465761404561772a565b5b6040519080825280601f01601f1916602001820160405280156140785781602001600182028036833780820191505090505b5090505b600085146141055760018261409191906173ff565b9150600a856140a091906175df565b60306140ac919061731e565b60f81b8183815181106140c2576140c16176fb565b5b60200101907effffffffffffffffffffffffffffffffffffffffffffffffffffffffffffff1916908160001a905350600a856140fe9190617374565b945061407c565b8093505050505b919050565b61412b828260405180602001604052806000815250614ba0565b5050565b61413882613cf6565b614177576040517f08c379a000000000000000000000000000000000000000000000000000000000815260040161416e90616efa565b60405180910390fd5b8060066000848152602001908152602001600020908051906020019061419e929190615aaf565b505050565b6001816000016000828254019250508190555050565b6141c1612383565b614200576040517f08c379a00000000000000000000000000000000000000000000000000000000081526004016141f790616c5a565b60405180910390fd5b6000600760146101000a81548160ff0219169083151502179055507f5db9ee0a495bf2e6ff9c91a7834c1ba4fdd244a5e8aa4e537bd38aeae4b073aa614244613b7b565b6040516142519190616b5e565b60405180910390a1565b8047101561429e576040517f08c379a000000000000000000000000000000000000000000000000000000000815260040161429590616dfa565b60405180910390fd5b60008273ffffffffffffffffffffffffffffffffffffffff16826040516142c490616b11565b60006040518083038185875af1925050503d8060008114614301576040519150601f19603f3d011682016040523d82523d6000602084013e614306565b606091505b505090508061434a576040517f08c379a000000000000000000000000000000000000000000000000000000000815260040161434190616dba565b60405180910390fd5b505050565b6000600d60008381526020019081526020016000205490506000600b600083815260200190815260200160002060009054906101000a900460ff1690506000600c600083600d8111156143a5576143a461766e565b5b600d8111156143b7576143b661766e565b5b815260200190815260200160002060009054906101000a900460ff1690506002808111156143e8576143e761766e565b5b8160028111156143fb576143fa61766e565b5b141561443c576040517f08c379a000000000000000000000000000000000000000000000000000000000815260040161443390616d9a565b60405180910390fd5b61444584614bfb565b50505050565b6000600760009054906101000a900473ffffffffffffffffffffffffffffffffffffffff16905081600760006101000a81548173ffffffffffffffffffffffffffffffffffffffff021916908373ffffffffffffffffffffffffffffffffffffffff1602179055508173ffffffffffffffffffffffffffffffffffffffff168173ffffffffffffffffffffffffffffffffffffffff167f8be0079c531659141344cd1fd0a4f28419497f9722a3daafe3b4186f6b6457e060405160405180910390a35050565b614519612383565b15614559576040517f08c379a000000000000000000000000000000000000000000000000000000000815260040161455090616e3a565b60405180910390fd5b6001600760146101000a81548160ff0219169083151502179055507f62e78cea01bee320cd4e420270b5ea74000d11b0c9f74754ebdbfc544b05a25861459d613b7b565b6040516145aa9190616b5e565b60405180910390a1565b8173ffffffffffffffffffffffffffffffffffffffff168373ffffffffffffffffffffffffffffffffffffffff161415614623576040517f08c379a000000000000000000000000000000000000000000000000000000000815260040161461a90616d7a565b60405180910390fd5b80600560008573ffffffffffffffffffffffffffffffffffffffff1673ffffffffffffffffffffffffffffffffffffffff16815260200190815260200160002060008473ffffffffffffffffffffffffffffffffffffffff1673ffffffffffffffffffffffffffffffffffffffff16815260200190815260200160002060006101000a81548160ff0219169083151502179055508173ffffffffffffffffffffffffffffffffffffffff168373ffffffffffffffffffffffffffffffffffffffff167f17307eab39ab6107e8899845ad3d59bd9653f200f220920489ca2b5937696c31836040516147149190616be7565b60405180910390a3505050565b61472c848484613f66565b61473884848484614c4e565b614777576040517f08c379a000000000000000000000000000000000000000000000000000000000815260040161476e90616c9a565b60405180910390fd5b50505050565b606061478882613cf6565b6147c7576040517f08c379a00000000000000000000000000000000000000000000000000000000081526004016147be90616f5a565b60405180910390fd5b60006006600084815260200190815260200160002080546147e790617533565b80601f016020809104026020016040519081016040528092919081815260200182805461481390617533565b80156148605780601f1061483557610100808354040283529160200191614860565b820191906000526020600020905b81548152906001019060200180831161484357829003601f168201915b505050505090506000614871614de5565b90506000815114156148875781925050506148ca565b6000825111156148bc5780826040516020016148a4929190616ab5565b604051602081830303815290604052925050506148ca565b6148c584614e77565b925050505b919050565b60007f01ffc9a7000000000000000000000000000000000000000000000000000000007bffffffffffffffffffffffffffffffffffffffffffffffffffffffff1916827bffffffffffffffffffffffffffffffffffffffffffffffffffffffff1916149050919050565b8273ffffffffffffffffffffffffffffffffffffffff166149598261239a565b73ffffffffffffffffffffffffffffffffffffffff16146149af576040517f08c379a00000000000000000000000000000000000000000000000000000000081526004016149a690616cda565b60405180910390fd5b600073ffffffffffffffffffffffffffffffffffffffff168273ffffffffffffffffffffffffffffffffffffffff161415614a1f576040517f08c379a0000000000000000000000000000000000000000000000000000000008152600401614a1690616d5a565b60405180910390fd5b614a2a838383614f1e565b614a35600082613d62565b6001600360008573ffffffffffffffffffffffffffffffffffffffff1673ffffffffffffffffffffffffffffffffffffffff1681526020019081526020016000206000828254614a8591906173ff565b925050819055506001600360008473ffffffffffffffffffffffffffffffffffffffff1673ffffffffffffffffffffffffffffffffffffffff1681526020019081526020016000206000828254614adc919061731e565b92505081905550816002600083815260200190815260200160002060006101000a81548173ffffffffffffffffffffffffffffffffffffffff021916908373ffffffffffffffffffffffffffffffffffffffff160217905550808273ffffffffffffffffffffffffffffffffffffffff168473ffffffffffffffffffffffffffffffffffffffff167fddf252ad1be2c89b69c2b068fc378daa952ba7f163c4a11628f55a4df523b3ef60405160405180910390a4614b9b8383836152d5565b505050565b614baa83836152da565b614bb76000848484614c4e565b614bf6576040517f08c379a0000000000000000000000000000000000000000000000000000000008152600401614bed90616c9a565b60405180910390fd5b505050565b614c04816154b4565b6000600660008381526020019081526020016000208054614c2490617533565b905014614c4b57600660008281526020019081526020016000206000614c4a9190615b35565b5b50565b6000614c6f8473ffffffffffffffffffffffffffffffffffffffff166155d1565b15614dd8578373ffffffffffffffffffffffffffffffffffffffff1663150b7a02614c98613b7b565b8786866040518563ffffffff1660e01b8152600401614cba9493929190616b79565b602060405180830381600087803b158015614cd457600080fd5b505af1925050508015614d0557506040513d601f19601f82011682018060405250810190614d029190616125565b60015b614d88573d8060008114614d35576040519150601f19603f3d011682016040523d82523d6000602084013e614d3a565b606091505b50600081511415614d80576040517f08c379a0000000000000000000000000000000000000000000000000000000008152600401614d7790616c9a565b60405180910390fd5b805181602001fd5b63150b7a0260e01b7bffffffffffffffffffffffffffffffffffffffffffffffffffffffff1916817bffffffffffffffffffffffffffffffffffffffffffffffffffffffff191614915050614ddd565b600190505b949350505050565b606060208054614df490617533565b80601f0160208091040260200160405190810160405280929190818152602001828054614e2090617533565b8015614e6d5780601f10614e4257610100808354040283529160200191614e6d565b820191906000526020600020905b815481529060010190602001808311614e5057829003601f168201915b5050505050905090565b6060614e8282613cf6565b614ec1576040517f08c379a0000000000000000000000000000000000000000000000000000000008152600401614eb890616fba565b60405180910390fd5b6000614ecb614de5565b90506000815111614eeb5760405180602001604052806000815250614f16565b80614ef584613fb0565b604051602001614f06929190616ab5565b6040516020818303038152906040525b915050919050565b614f26612383565b15614f66576040517f08c379a0000000000000000000000000000000000000000000000000000000008152600401614f5d90616e3a565b60405180910390fd5b614f718383836155f4565b6000600d60008381526020019081526020016000205490506000600b600083815260200190815260200160002060009054906101000a900460ff1690506000600c600083600d811115614fc757614fc661766e565b5b600d811115614fd957614fd861766e565b5b815260200190815260200160002060009054906101000a900460ff16905060028081111561500a5761500961766e565b5b81600281111561501d5761501c61766e565b5b141561515657600073ffffffffffffffffffffffffffffffffffffffff168673ffffffffffffffffffffffffffffffffffffffff1614615063576150628685856155f9565b5b600f60008673ffffffffffffffffffffffffffffffffffffffff1673ffffffffffffffffffffffffffffffffffffffff16815260200190815260200160002060008481526020019081526020016000208490806001815401808255809150506001900390600052602060002001600090919091909150556001600f60008773ffffffffffffffffffffffffffffffffffffffff1673ffffffffffffffffffffffffffffffffffffffff16815260200190815260200160002060008581526020019081526020016000208054905061513a91906173ff565b60116000868152602001908152602001600020819055506152cd565b600073ffffffffffffffffffffffffffffffffffffffff168673ffffffffffffffffffffffffffffffffffffffff16146151965761519586858461580c565b5b601060008673ffffffffffffffffffffffffffffffffffffffff1673ffffffffffffffffffffffffffffffffffffffff168152602001908152602001600020600083600d8111156151ea576151e961766e565b5b600d8111156151fc576151fb61766e565b5b81526020019081526020016000208490806001815401808255809150506001900390600052602060002001600090919091909150556001601060008773ffffffffffffffffffffffffffffffffffffffff1673ffffffffffffffffffffffffffffffffffffffff168152602001908152602001600020600084600d8111156152875761528661766e565b5b600d8111156152995761529861766e565b5b8152602001908152602001600020805490506152b591906173ff565b60116000868152602001908152602001600020819055505b505050505050565b505050565b600073ffffffffffffffffffffffffffffffffffffffff168273ffffffffffffffffffffffffffffffffffffffff16141561534a576040517f08c379a000000000000000000000000000000000000000000000000000000000815260040161534190616f1a565b60405180910390fd5b61535381613cf6565b15615393576040517f08c379a000000000000000000000000000000000000000000000000000000000815260040161538a90616cfa565b60405180910390fd5b61539f60008383614f1e565b6001600360008473ffffffffffffffffffffffffffffffffffffffff1673ffffffffffffffffffffffffffffffffffffffff16815260200190815260200160002060008282546153ef919061731e565b92505081905550816002600083815260200190815260200160002060006101000a81548173ffffffffffffffffffffffffffffffffffffffff021916908373ffffffffffffffffffffffffffffffffffffffff160217905550808273ffffffffffffffffffffffffffffffffffffffff16600073ffffffffffffffffffffffffffffffffffffffff167fddf252ad1be2c89b69c2b068fc378daa952ba7f163c4a11628f55a4df523b3ef60405160405180910390a46154b0600083836152d5565b5050565b60006154bf8261239a565b90506154cd81600084614f1e565b6154d8600083613d62565b6001600360008373ffffffffffffffffffffffffffffffffffffffff1673ffffffffffffffffffffffffffffffffffffffff168152602001908152602001600020600082825461552891906173ff565b925050819055506002600083815260200190815260200160002060006101000a81549073ffffffffffffffffffffffffffffffffffffffff021916905581600073ffffffffffffffffffffffffffffffffffffffff168273ffffffffffffffffffffffffffffffffffffffff167fddf252ad1be2c89b69c2b068fc378daa952ba7f163c4a11628f55a4df523b3ef60405160405180910390a46155cd816000846152d5565b5050565b6000808273ffffffffffffffffffffffffffffffffffffffff163b119050919050565b505050565b60006001600f60008673ffffffffffffffffffffffffffffffffffffffff1673ffffffffffffffffffffffffffffffffffffffff16815260200190815260200160002060008481526020019081526020016000208054905061565b91906173ff565b9050600060116000858152602001908152602001600020549050818114615778576000600f60008773ffffffffffffffffffffffffffffffffffffffff1673ffffffffffffffffffffffffffffffffffffffff168152602001908152602001600020600085815260200190815260200160002083815481106156e0576156df6176fb565b5b9060005260206000200154905080600f60008873ffffffffffffffffffffffffffffffffffffffff1673ffffffffffffffffffffffffffffffffffffffff168152602001908152602001600020600086815260200190815260200160002083815481106157505761574f6176fb565b5b9060005260206000200181905550816011600083815260200190815260200160002081905550505b6011600085815260200190815260200160002060009055600f60008673ffffffffffffffffffffffffffffffffffffffff1673ffffffffffffffffffffffffffffffffffffffff16815260200190815260200160002060008481526020019081526020016000208054806157ef576157ee6176cc565b5b600190038181906000526020600020016000905590555050505050565b60006001601060008673ffffffffffffffffffffffffffffffffffffffff1673ffffffffffffffffffffffffffffffffffffffff168152602001908152602001600020600084600d8111156158645761586361766e565b5b600d8111156158765761587561766e565b5b81526020019081526020016000208054905061589291906173ff565b90506000601160008581526020019081526020016000205490508181146159f7576000601060008773ffffffffffffffffffffffffffffffffffffffff1673ffffffffffffffffffffffffffffffffffffffff168152602001908152602001600020600085600d8111156159095761590861766e565b5b600d81111561591b5761591a61766e565b5b8152602001908152602001600020838154811061593b5761593a6176fb565b5b9060005260206000200154905080601060008873ffffffffffffffffffffffffffffffffffffffff1673ffffffffffffffffffffffffffffffffffffffff168152602001908152602001600020600086600d81111561599d5761599c61766e565b5b600d8111156159af576159ae61766e565b5b815260200190815260200160002083815481106159cf576159ce6176fb565b5b9060005260206000200181905550816011600083815260200190815260200160002081905550505b6011600085815260200190815260200160002060009055601060008673ffffffffffffffffffffffffffffffffffffffff1673ffffffffffffffffffffffffffffffffffffffff168152602001908152602001600020600084600d811115615a6257615a6161766e565b5b600d811115615a7457615a7361766e565b5b8152602001908152602001600020805480615a9257615a916176cc565b5b600190038181906000526020600020016000905590555050505050565b828054615abb90617533565b90600052602060002090601f016020900481019282615add5760008555615b24565b82601f10615af657805160ff1916838001178555615b24565b82800160010185558215615b24579182015b82811115615b23578251825591602001919060010190615b08565b5b509050615b319190615b75565b5090565b508054615b4190617533565b6000825580601f10615b535750615b72565b601f016020900490600052602060002090810190615b719190615b75565b5b50565b5b80821115615b8e576000816000905550600101615b76565b5090565b6000615ba5615ba08461723a565b617215565b90508083825260208201905082856020860282011115615bc857615bc761775e565b5b60005b85811015615bf85781615bde8882615cf4565b845260208401935060208301925050600181019050615bcb565b5050509392505050565b6000615c15615c1084617266565b617215565b905082815260208101848484011115615c3157615c30617763565b5b615c3c8482856174f1565b509392505050565b600081359050615c5381618233565b92915050565b600082601f830112615c6e57615c6d617759565b5b8135615c7e848260208601615b92565b91505092915050565b600081359050615c968161824a565b92915050565b600081359050615cab81618261565b92915050565b600081519050615cc081618261565b92915050565b600082601f830112615cdb57615cda617759565b5b8135615ceb848260208601615c02565b91505092915050565b600081359050615d0381618278565b92915050565b600081359050615d1881618288565b92915050565b600081359050615d2d81618298565b92915050565b600060208284031215615d4957615d4861776d565b5b6000615d5784828501615c44565b91505092915050565b60008060408385031215615d7757615d7661776d565b5b6000615d8585828601615c44565b9250506020615d9685828601615c44565b9150509250929050565b600080600060608486031215615db957615db861776d565b5b6000615dc786828701615c44565b9350506020615dd886828701615c44565b9250506040615de986828701615d1e565b9150509250925092565b60008060008060808587031215615e0d57615e0c61776d565b5b6000615e1b87828801615c44565b9450506020615e2c87828801615c44565b9350506040615e3d87828801615d1e565b925050606085013567ffffffffffffffff811115615e5e57615e5d617768565b5b615e6a87828801615cc6565b91505092959194509250565b60008060408385031215615e8d57615e8c61776d565b5b6000615e9b85828601615c44565b9250506020615eac85828601615c87565b9150509250929050565b60008060408385031215615ecd57615ecc61776d565b5b6000615edb85828601615c44565b9250506020615eec85828601615cf4565b9150509250929050565b600080600060608486031215615f0f57615f0e61776d565b5b6000615f1d86828701615c44565b9350506020615f2e86828701615cf4565b9250506040615f3f86828701615c87565b9150509250925092565b600080600060608486031215615f6257615f6161776d565b5b6000615f7086828701615c44565b9350506020615f8186828701615cf4565b9250506040615f9286828701615d1e565b9150509250925092565b60008060408385031215615fb357615fb261776d565b5b6000615fc185828601615c44565b9250506020615fd285828601615d1e565b9150509250929050565b600080600060608486031215615ff557615ff461776d565b5b600061600386828701615c44565b935050602061601486828701615d1e565b925050604061602586828701615c87565b9150509250925092565b6000806000606084860312156160485761604761776d565b5b600061605686828701615c44565b935050602061606786828701615d1e565b925050604061607886828701615d1e565b9150509250925092565b6000602082840312156160985761609761776d565b5b600082013567ffffffffffffffff8111156160b6576160b5617768565b5b6160c284828501615c59565b91505092915050565b6000602082840312156160e1576160e061776d565b5b60006160ef84828501615c87565b91505092915050565b60006020828403121561610e5761610d61776d565b5b600061611c84828501615c9c565b91505092915050565b60006020828403121561613b5761613a61776d565b5b600061614984828501615cb1565b91505092915050565b6000602082840312156161685761616761776d565b5b600061617684828501615cf4565b91505092915050565b600080604083850312156161965761619561776d565b5b60006161a485828601615cf4565b92505060206161b585828601615c87565b9150509250929050565b600080604083850312156161d6576161d561776d565b5b60006161e485828601615d09565b92505060206161f585828601615cf4565b9150509250929050565b6000602082840312156162155761621461776d565b5b600061622384828501615d1e565b91505092915050565b600080604083850312156162435761624261776d565b5b600061625185828601615d1e565b925050602061626285828601615cf4565b9150509250929050565b60006162788383616a97565b60208301905092915050565b61628d81617433565b82525050565b600061629e826172a7565b6162a881856172d5565b93506162b383617297565b8060005b838110156162e45781516162cb888261626c565b97506162d6836172c8565b9250506001810190506162b7565b5085935050505092915050565b6162fa81617445565b82525050565b600061630b826172b2565b61631581856172e6565b9350616325818560208601617500565b61632e81617772565b840191505092915050565b616342816174cd565b82525050565b616351816174df565b82525050565b6000616362826172bd565b61636c8185617302565b935061637c818560208601617500565b61638581617772565b840191505092915050565b600061639b826172bd565b6163a58185617313565b93506163b5818560208601617500565b80840191505092915050565b60006163ce601483617302565b91506163d982617783565b602082019050919050565b60006163f1601483617302565b91506163fc826177ac565b602082019050919050565b6000616414603283617302565b915061641f826177d5565b604082019050919050565b6000616437602683617302565b915061644282617824565b604082019050919050565b600061645a602583617302565b915061646582617873565b604082019050919050565b600061647d601c83617302565b9150616488826178c2565b602082019050919050565b60006164a0601283617302565b91506164ab826178eb565b602082019050919050565b60006164c3601f83617302565b91506164ce82617914565b602082019050919050565b60006164e6602483617302565b91506164f18261793d565b604082019050919050565b6000616509601983617302565b91506165148261798c565b602082019050919050565b600061652c602583617302565b9150616537826179b5565b604082019050919050565b600061654f603a83617302565b915061655a82617a04565b604082019050919050565b6000616572601983617302565b915061657d82617a53565b602082019050919050565b6000616595601d83617302565b91506165a082617a7c565b602082019050919050565b60006165b8602c83617302565b91506165c382617aa5565b604082019050919050565b60006165db601083617302565b91506165e682617af4565b602082019050919050565b60006165fe603883617302565b915061660982617b1d565b604082019050919050565b6000616621601383617302565b915061662c82617b6c565b602082019050919050565b6000616644602a83617302565b915061664f82617b95565b604082019050919050565b6000616667602983617302565b915061667282617be4565b604082019050919050565b600061668a600f83617302565b915061669582617c33565b602082019050919050565b60006166ad602e83617302565b91506166b882617c5c565b604082019050919050565b60006166d0602083617302565b91506166db82617cab565b602082019050919050565b60006166f3601383617302565b91506166fe82617cd4565b602082019050919050565b6000616716603183617302565b915061672182617cfd565b604082019050919050565b6000616739602c83617302565b915061674482617d4c565b604082019050919050565b600061675c600583617313565b915061676782617d9b565b600582019050919050565b600061677f602083617302565b915061678a82617dc4565b602082019050919050565b60006167a2602f83617302565b91506167ad82617ded565b604082019050919050565b60006167c5601783617302565b91506167d082617e3c565b602082019050919050565b60006167e8602183617302565b91506167f382617e65565b604082019050919050565b600061680b601983617302565b915061681682617eb4565b602082019050919050565b600061682e600583617313565b915061683982617edd565b600582019050919050565b60006168516000836172f7565b915061685c82617f06565b600082019050919050565b6000616874601583617302565b915061687f82617f09565b602082019050919050565b6000616897603183617302565b91506168a282617f32565b604082019050919050565b60006168ba601b83617302565b91506168c582617f81565b602082019050919050565b60006168dd601383617302565b91506168e882617faa565b602082019050919050565b6000616900602483617302565b915061690b82617fd3565b604082019050919050565b6000616923601e83617302565b915061692e82618022565b602082019050919050565b6000616946601683617302565b91506169518261804b565b602082019050919050565b6000616969601683617302565b915061697482618074565b602082019050919050565b600061698c600583617313565b91506169978261809d565b600582019050919050565b60006169af601283617302565b91506169ba826180c6565b602082019050919050565b60006169d2601983617302565b91506169dd826180ef565b602082019050919050565b60006169f5601483617302565b9150616a0082618118565b602082019050919050565b6000616a18601f83617302565b9150616a2382618141565b602082019050919050565b6000616a3b603083617302565b9150616a468261816a565b604082019050919050565b6000616a5e601783617302565b9150616a69826181b9565b602082019050919050565b6000616a81600183617313565b9150616a8c826181e2565b600182019050919050565b616aa0816174c3565b82525050565b616aaf816174c3565b82525050565b6000616ac18285616390565b9150616acd8284616390565b91508190509392505050565b6000616ae482616821565b9150616aef82616a74565b9150616afb8284616390565b9150616b068261674f565b915081905092915050565b6000616b1c82616844565b9150819050919050565b6000616b318261697f565b9150616b3c82616a74565b9150616b488284616390565b9150616b538261674f565b915081905092915050565b6000602082019050616b736000830184616284565b92915050565b6000608082019050616b8e6000830187616284565b616b9b6020830186616284565b616ba86040830185616aa6565b8181036060830152616bba8184616300565b905095945050505050565b60006020820190508181036000830152616bdf8184616293565b905092915050565b6000602082019050616bfc60008301846162f1565b92915050565b6000602082019050616c176000830184616339565b92915050565b6000602082019050616c326000830184616348565b92915050565b60006020820190508181036000830152616c528184616357565b905092915050565b60006020820190508181036000830152616c73816163c1565b9050919050565b60006020820190508181036000830152616c93816163e4565b9050919050565b60006020820190508181036000830152616cb381616407565b9050919050565b60006020820190508181036000830152616cd38161642a565b9050919050565b60006020820190508181036000830152616cf38161644d565b9050919050565b60006020820190508181036000830152616d1381616470565b9050919050565b60006020820190508181036000830152616d3381616493565b9050919050565b60006020820190508181036000830152616d53816164b6565b9050919050565b60006020820190508181036000830152616d73816164d9565b9050919050565b60006020820190508181036000830152616d93816164fc565b9050919050565b60006020820190508181036000830152616db38161651f565b9050919050565b60006020820190508181036000830152616dd381616542565b9050919050565b60006020820190508181036000830152616df381616565565b9050919050565b60006020820190508181036000830152616e1381616588565b9050919050565b60006020820190508181036000830152616e33816165ab565b9050919050565b60006020820190508181036000830152616e53816165ce565b9050919050565b60006020820190508181036000830152616e73816165f1565b9050919050565b60006020820190508181036000830152616e9381616614565b9050919050565b60006020820190508181036000830152616eb381616637565b9050919050565b60006020820190508181036000830152616ed38161665a565b9050919050565b60006020820190508181036000830152616ef38161667d565b9050919050565b60006020820190508181036000830152616f13816166a0565b9050919050565b60006020820190508181036000830152616f33816166c3565b9050919050565b60006020820190508181036000830152616f53816166e6565b9050919050565b60006020820190508181036000830152616f7381616709565b9050919050565b60006020820190508181036000830152616f938161672c565b9050919050565b60006020820190508181036000830152616fb381616772565b9050919050565b60006020820190508181036000830152616fd381616795565b9050919050565b60006020820190508181036000830152616ff3816167b8565b9050919050565b60006020820190508181036000830152617013816167db565b9050919050565b60006020820190508181036000830152617033816167fe565b9050919050565b6000602082019050818103600083015261705381616867565b9050919050565b600060208201905081810360008301526170738161688a565b9050919050565b60006020820190508181036000830152617093816168ad565b9050919050565b600060208201905081810360008301526170b3816168d0565b9050919050565b600060208201905081810360008301526170d3816168f3565b9050919050565b600060208201905081810360008301526170f381616916565b9050919050565b6000602082019050818103600083015261711381616939565b9050919050565b600060208201905081810360008301526171338161695c565b9050919050565b60006020820190508181036000830152617153816169a2565b9050919050565b60006020820190508181036000830152617173816169c5565b9050919050565b60006020820190508181036000830152617193816169e8565b9050919050565b600060208201905081810360008301526171b381616a0b565b9050919050565b600060208201905081810360008301526171d381616a2e565b9050919050565b600060208201905081810360008301526171f381616a51565b9050919050565b600060208201905061720f6000830184616aa6565b92915050565b600061721f617230565b905061722b8282617565565b919050565b6000604051905090565b600067ffffffffffffffff8211156172555761725461772a565b5b602082029050602081019050919050565b600067ffffffffffffffff8211156172815761728061772a565b5b61728a82617772565b9050602081019050919050565b6000819050602082019050919050565b600081519050919050565b600081519050919050565b600081519050919050565b6000602082019050919050565b600082825260208201905092915050565b600082825260208201905092915050565b600081905092915050565b600082825260208201905092915050565b600081905092915050565b6000617329826174c3565b9150617334836174c3565b9250827fffffffffffffffffffffffffffffffffffffffffffffffffffffffffffffffff0382111561736957617368617610565b5b828201905092915050565b600061737f826174c3565b915061738a836174c3565b92508261739a5761739961763f565b5b828204905092915050565b60006173b0826174c3565b91506173bb836174c3565b9250817fffffffffffffffffffffffffffffffffffffffffffffffffffffffffffffffff04831182151516156173f4576173f3617610565b5b828202905092915050565b600061740a826174c3565b9150617415836174c3565b92508282101561742857617427617610565b5b828203905092915050565b600061743e826174a3565b9050919050565b60008115159050919050565b60007fffffffff0000000000000000000000000000000000000000000000000000000082169050919050565b600081905061748b8261820b565b919050565b600081905061749e8261821f565b919050565b600073ffffffffffffffffffffffffffffffffffffffff82169050919050565b6000819050919050565b60006174d88261747d565b9050919050565b60006174ea82617490565b9050919050565b82818337600083830152505050565b60005b8381101561751e578082015181840152602081019050617503565b8381111561752d576000848401525b50505050565b6000600282049050600182168061754b57607f821691505b6020821081141561755f5761755e61769d565b5b50919050565b61756e82617772565b810181811067ffffffffffffffff8211171561758d5761758c61772a565b5b80604052505050565b60006175a1826174c3565b91507fffffffffffffffffffffffffffffffffffffffffffffffffffffffffffffffff8214156175d4576175d3617610565b5b600182019050919050565b60006175ea826174c3565b91506175f5836174c3565b9250826176055761760461763f565b5b828206905092915050565b7f4e487b7100000000000000000000000000000000000000000000000000000000600052601160045260246000fd5b7f4e487b7100000000000000000000000000000000000000000000000000000000600052601260045260246000fd5b7f4e487b7100000000000000000000000000000000000000000000000000000000600052602160045260246000fd5b7f4e487b7100000000000000000000000000000000000000000000000000000000600052602260045260246000fd5b7f4e487b7100000000000000000000000000000000000000000000000000000000600052603160045260246000fd5b7f4e487b7100000000000000000000000000000000000000000000000000000000600052603260045260246000fd5b7f4e487b7100000000000000000000000000000000000000000000000000000000600052604160045260246000fd5b600080fd5b600080fd5b600080fd5b600080fd5b600080fd5b6000601f19601f8301169050919050565b7f5061757361626c653a206e6f7420706175736564000000000000000000000000600082015250565b7f57726f6e67207469636b6574207175616c697479000000000000000000000000600082015250565b7f4552433732313a207472616e7366657220746f206e6f6e20455243373231526560008201527f63656976657220696d706c656d656e7465720000000000000000000000000000602082015250565b7f4f776e61626c653a206e6577206f776e657220697320746865207a65726f206160008201527f6464726573730000000000000000000000000000000000000000000000000000602082015250565b7f4552433732313a207472616e736665722066726f6d20696e636f72726563742060008201527f6f776e6572000000000000000000000000000000000000000000000000000000602082015250565b7f4552433732313a20746f6b656e20616c7265616479206d696e74656400000000600082015250565b7f47616d65206973206e6f74206f76657220210000000000000000000000000000600082015250565b7f5468697320636f6e73756d61626c6520646f65736e2774206578697374202100600082015250565b7f4552433732313a207472616e7366657220746f20746865207a65726f2061646460008201527f7265737300000000000000000000000000000000000000000000000000000000602082015250565b7f4552433732313a20617070726f766520746f2063616c6c657200000000000000600082015250565b7f4f6e6c79207469636b657473206f72207370656c6c7320617265206275726e6160008201527f626c652021000000000000000000000000000000000000000000000000000000602082015250565b7f416464726573733a20756e61626c6520746f2073656e642076616c75652c207260008201527f6563697069656e74206d61792068617665207265766572746564000000000000602082015250565b7f596f7520617265206e6f742077686974656c6973746564202100000000000000600082015250565b7f416464726573733a20696e73756666696369656e742062616c616e6365000000600082015250565b7f4552433732313a206f70657261746f7220717565727920666f72206e6f6e657860008201527f697374656e7420746f6b656e0000000000000000000000000000000000000000602082015250565b7f5061757361626c653a2070617573656400000000000000000000000000000000600082015250565b7f4552433732313a20617070726f76652063616c6c6572206973206e6f74206f7760008201527f6e6572206e6f7220617070726f76656420666f7220616c6c0000000000000000602082015250565b7f546f6f20736f6f6e20746f20636c65616e202100000000000000000000000000600082015250565b7f4552433732313a2062616c616e636520717565727920666f7220746865207a6560008201527f726f206164647265737300000000000000000000000000000000000000000000602082015250565b7f4552433732313a206f776e657220717565727920666f72206e6f6e657869737460008201527f656e7420746f6b656e0000000000000000000000000000000000000000000000602082015250565b7f4d6178696d756d20726561636865640000000000000000000000000000000000600082015250565b7f45524337323155524953746f726167653a2055524920736574206f66206e6f6e60008201527f6578697374656e7420746f6b656e000000000000000000000000000000000000602082015250565b7f4552433732313a206d696e7420746f20746865207a65726f2061646472657373600082015250565b7f57726f6e67207370656c6c207175616c69747900000000000000000000000000600082015250565b7f45524337323155524953746f726167653a2055524920717565727920666f722060008201527f6e6f6e6578697374656e7420746f6b656e000000000000000000000000000000602082015250565b7f4552433732313a20617070726f76656420717565727920666f72206e6f6e657860008201527f697374656e7420746f6b656e0000000000000000000000000000000000000000602082015250565b7f2e6a736f6e000000000000000000000000000000000000000000000000000000600082015250565b7f4f776e61626c653a2063616c6c6572206973206e6f7420746865206f776e6572600082015250565b7f4552433732314d657461646174613a2055524920717565727920666f72206e6f60008201527f6e6578697374656e7420746f6b656e0000000000000000000000000000000000602082015250565b7f57726f6e67207175616c69747920666f72206361726473000000000000000000600082015250565b7f4552433732313a20617070726f76616c20746f2063757272656e74206f776e6560008201527f7200000000000000000000000000000000000000000000000000000000000000602082015250565b7f54686973206361726420646f65736e2774206578697374202100000000000000600082015250565b7f636f6e736f000000000000000000000000000000000000000000000000000000600082015250565b50565b7f5769746864726177207374696c6c206f70656e20210000000000000000000000600082015250565b7f4552433732313a207472616e736665722063616c6c6572206973206e6f74206f60008201527f776e6572206e6f7220617070726f766564000000000000000000000000000000602082015250565b7f416c7265616479207265636569766564206120726566756e6420210000000000600082015250565b7f4974656d206e6f742073656c6c61626c65202100000000000000000000000000600082015250565b7f4f6e6c79207469636b65747320616e64207370656c6c73206172652073656c6c60008201527f61626c6500000000000000000000000000000000000000000000000000000000602082015250565b7f4e6f7420617574686f72697a656420666f722074686973206361726420210000600082015250565b7f5769746864726177206e6f742073746172746564202100000000000000000000600082015250565b7f56616c75652073656e74206e6f7420636f727265637400000000000000000000600082015250565b7f6361726473000000000000000000000000000000000000000000000000000000600082015250565b7f54686174206973206e6f74206120636172640000000000000000000000000000600082015250565b7f4e6f20532c2053532c205820636172647320666f756e64202100000000000000600082015250565b7f47616d65206973207374696c6c206f7665722021000000000000000000000000600082015250565b7f5265656e7472616e637947756172643a207265656e7472616e742063616c6c00600082015250565b7f4552433732314275726e61626c653a2063616c6c6572206973206e6f74206f7760008201527f6e6572206e6f7220617070726f76656400000000000000000000000000000000602082015250565b7f576974686472617773206e6f7420737461727465642021000000000000000000600082015250565b7f2f00000000000000000000000000000000000000000000000000000000000000600082015250565b600e811061821c5761821b61766e565b5b50565b600381106182305761822f61766e565b5b50565b61823c81617433565b811461824757600080fd5b50565b61825381617445565b811461825e57600080fd5b50565b61826a81617451565b811461827557600080fd5b50565b600e811061828557600080fd5b50565b6003811061829557600080fd5b50565b6182a1816174c3565b81146182ac57600080fd5b5056fea26469706673582212209cfa85f90c8d399767c04540043313d848cf08238e6d073155bb41d748bf554564736f6c63430008070033",
  "immutableReferences": {},
  "source": "// SPDX-License-Identifier: MIT\r\npragma solidity 0.8.7;\r\n\r\nimport \"@openzeppelin/contracts/token/ERC721/ERC721.sol\";\r\nimport \"@openzeppelin/contracts/token/ERC721/extensions/ERC721URIStorage.sol\";\r\nimport \"@openzeppelin/contracts/token/ERC721/extensions/ERC721Burnable.sol\";\r\nimport \"@openzeppelin/contracts/utils/Counters.sol\";\r\nimport \"@openzeppelin/contracts/utils/Strings.sol\";\r\nimport \"./GreedClaim.sol\";\r\n\r\n/// @custom:security-contact security@greedislands.com\r\ncontract GreedIslandS1 is ERC721, ERC721URIStorage, ERC721Burnable, GreedClaim {\r\n    using Counters for Counters.Counter;\r\n    using Strings for uint256;\r\n\r\n    mapping(uint256 => Counters.Counter) public _countByNumber;\r\n\r\n    mapping(address => bool) public _whiteListed;\r\n\r\n    mapping(address => mapping(uint256 => bool)) public _authorizedMintingCard;\r\n\r\n    mapping(address => mapping(Quality => bool)) public _giftedConsumable;\r\n\r\n    bool public _openSales;\r\n\r\n    Counters.Counter public _tokenIdCounter;\r\n\r\n    string public baseURI;\r\n\r\n    address public _marketAddress;\r\n\r\n    constructor(\r\n        string memory newBaseURI,\r\n        uint256 _maxBasicCard,\r\n        uint256 _maxACard,\r\n        uint256 _maxSCard,\r\n        uint256 _maxSSCard,\r\n        uint256 _maxXCard,\r\n        uint256 _sRatio,\r\n        uint256 _ssRatio,\r\n        uint256 _xRatio\r\n    ) ERC721(\"GreedIslandS1\", \"GI\") {\r\n        baseURI = newBaseURI;\r\n        _maxByQuality[Quality.C] = _maxBasicCard;\r\n        _maxByQuality[Quality.B] = _maxBasicCard;\r\n        _maxByQuality[Quality.A] = _maxACard;\r\n        _maxByQuality[Quality.S] = _maxSCard;\r\n        _maxByQuality[Quality.SS] = _maxSSCard;\r\n        _maxByQuality[Quality.X] = _maxXCard;\r\n        _ratioByQuality[Quality.S] = _sRatio;\r\n        _ratioByQuality[Quality.SS] = _ssRatio;\r\n        _ratioByQuality[Quality.X] =  _xRatio;\r\n    }\r\n\r\n    function setMarketAddress(address marketAddress) external onlyOwner {\r\n        _marketAddress = marketAddress;\r\n    }\r\n\r\n    function authorizeForMinting(address user, uint256 number, bool authorized) external onlyOwner {\r\n        _authorizeForMinting(user, number, authorized);\r\n    }\r\n\r\n    function giveConsumable(address user, Quality quality, bool authorized) external onlyOwner {\r\n        _giveConsumable(user, quality, authorized);\r\n    }\r\n\r\n    function _authorizeForMinting(address user, uint256 number, bool authorized) internal {\r\n        _authorizedMintingCard[user][number] = authorized;\r\n    }\r\n\r\n    function _giveConsumable(address user, Quality quality, bool authorized) internal {\r\n        _giftedConsumable[user][quality] = authorized;\r\n    }\r\n\r\n    function _baseURI() internal view override returns (string memory) {\r\n        return baseURI;\r\n    }\r\n\r\n    function setOpenSales(bool opened) external onlyOwner {\r\n        _openSales = opened;\r\n    }\r\n\r\n    function addToWhiteList(address user) external onlyOwner {\r\n        _whiteListed[user] = true;\r\n    }\r\n\r\n    function removeFromWhiteList(address user) external onlyOwner {\r\n        _whiteListed[user] = false;\r\n    }\r\n\r\n    function mintCards(\r\n        uint256 number\r\n    ) external {\r\n        Quality quality = _qualityByNumber[number];\r\n        TypeOfItem typeOfItem = _typeByQuality[quality];\r\n        address to = msg.sender;\r\n\r\n        require(_itemExists[number] == true, \"This card doesn't exist !\");\r\n        require(_authorizedMintingCard[to][number] == true, \"Not authorized for this card !\");\r\n        require(typeOfItem == TypeOfItem.CARD, \"That is not a card\");\r\n        require(\r\n            _countByNumber[number].current() < _maxByQuality[quality],\r\n            \"Maximum reached\"\r\n        );\r\n        require(\r\n            quality == Quality.C ||\r\n                quality == Quality.B ||\r\n                quality == Quality.A ||\r\n                quality == Quality.S ||\r\n                quality == Quality.SS ||\r\n                quality == Quality.X,\r\n            \"Wrong quality for cards\"\r\n        );\r\n        uint256 tokenId = _tokenIdCounter.current();\r\n        string memory uri = string(\r\n            abi.encodePacked(\"cards\", \"/\", number.toString(), \".json\")\r\n        );\r\n        _numberByTokenId[tokenId] = number;\r\n        _safeMint(to, tokenId);\r\n        _approve(_marketAddress, tokenId);\r\n        _authorizeForMinting(to, number, false);\r\n\r\n        _setTokenURI(tokenId, uri);\r\n        \r\n\r\n        _countByNumber[number].increment();\r\n        _tokenIdCounter.increment();\r\n    }\r\n\r\n    function mintConsumables(uint256 number)\r\n        external\r\n        payable\r\n    {\r\n        Quality quality = _qualityByNumber[number];\r\n        TypeOfItem typeOfItem = _typeByQuality[quality];\r\n        address to = msg.sender;   \r\n        require(_itemExists[number] == true, \"This consumable doesn't exist !\");\r\n        require(\r\n            typeOfItem == TypeOfItem.SPELL || typeOfItem == TypeOfItem.TICKET,\r\n            \"Only tickets and spells are sellable\"\r\n        );\r\n\r\n        if (_giftedConsumable[to][quality] == false) {\r\n            require(\r\n                _mintPriceByQuality[quality] == msg.value,\r\n                \"Value sent not correct\"\r\n            );\r\n            require(_isSellable[quality], \"Item not sellable !\");\r\n            if (_openSales == false) {\r\n                require(_whiteListed[to] == true, \"You are not whitelisted !\");\r\n            }\r\n        }\r\n\r\n        if (typeOfItem == TypeOfItem.TICKET) {\r\n            require(\r\n                quality == Quality.GOLD ||\r\n                    quality == Quality.PLATINUM ||\r\n                    quality == Quality.DIAMOND,\r\n                \"Wrong ticket quality\"\r\n            );\r\n\r\n        } else {\r\n            require(\r\n                quality == Quality.TP ||\r\n                    quality == Quality.LESSERPOTION ||\r\n                    quality == Quality.GREATERPOTION ||\r\n                    quality == Quality.CARDFINDER ||\r\n                    quality == Quality.SPEEDBONUS,\r\n                \"Wrong spell quality\"\r\n            );\r\n        }\r\n        uint256 tokenId = _tokenIdCounter.current();\r\n        uint256 uintQuality = uint256(quality);\r\n\r\n        string memory uri = string(\r\n            abi.encodePacked(\"conso\", \"/\", uintQuality.toString(), \".json\")\r\n        );\r\n        _numberByTokenId[tokenId] = number;\r\n        _safeMint(to, tokenId);\r\n        _approve(_marketAddress, tokenId);\r\n        _giveConsumable(to, quality, false);\r\n\r\n        _setTokenURI(tokenId, uri);\r\n       \r\n\r\n        _tokenIdCounter.increment();\r\n    }\r\n\r\n    function _beforeTokenTransfer(\r\n        address from,\r\n        address to,\r\n        uint256 tokenId\r\n    ) internal override(ERC721) whenNotPaused {\r\n        super._beforeTokenTransfer(from, to, tokenId);\r\n        uint256 number = _numberByTokenId[tokenId];\r\n        Quality quality = _qualityByNumber[number];\r\n        TypeOfItem typeOfItem = _typeByQuality[quality];\r\n\r\n\r\n         if (typeOfItem == TypeOfItem.CARD) {\r\n            if (from != address(0)) {\r\n                deleteUserCard( from, tokenId, number);\r\n            }\r\n            _userCards[to][number].push(tokenId);\r\n            _tokenItemIndex[tokenId] = _userCards[to][number].length -1;\r\n        } else {\r\n            if (from != address(0)) {\r\n                deleteUserConsumable(from, tokenId, quality);\r\n            }\r\n            _userConsumables[to][quality].push(tokenId);\r\n            _tokenItemIndex[tokenId] = _userConsumables[to][quality].length -1;\r\n        } \r\n    }\r\n\r\n    function _transfer(\r\n        address from,\r\n        address to,\r\n        uint256 tokenId\r\n    ) internal override {\r\n        super._transfer(from, to, tokenId);\r\n        _approve(_marketAddress, tokenId);\r\n    }\r\n\r\n    function deleteUserCard(address user, uint256 tokenId, uint256 number) internal {\r\n        uint256 lastTokenIndex = _userCards[user][number].length - 1;\r\n        uint256 tokenIndex = _tokenItemIndex[tokenId];\r\n\r\n        // When the token to delete is the last token, the swap operation is unnecessary\r\n        if (tokenIndex != lastTokenIndex) {\r\n            uint256 lastTokenId = _userCards[user][number][lastTokenIndex];\r\n\r\n            _userCards[user][number][tokenIndex] = lastTokenId; // Move the last token to the slot of the to-delete token\r\n            _tokenItemIndex[lastTokenId] = tokenIndex; // Update the moved token's index\r\n        }\r\n\r\n        // This also deletes the contents at the last position of the array\r\n        delete _tokenItemIndex[tokenId];\r\n        _userCards[user][number].pop();\r\n    }\r\n\r\n    function deleteUserConsumable(address user, uint256 tokenId, Quality quality) internal {\r\n        uint256 lastTokenIndex = _userConsumables[user][quality].length - 1;\r\n        uint256 tokenIndex = _tokenItemIndex[tokenId];\r\n\r\n        // When the token to delete is the last token, the swap operation is unnecessary\r\n        if (tokenIndex != lastTokenIndex) {\r\n            uint256 lastTokenId = _userConsumables[user][quality][lastTokenIndex];\r\n\r\n            _userConsumables[user][quality][tokenIndex] = lastTokenId; // Move the last token to the slot of the to-delete token\r\n            _tokenItemIndex[lastTokenId] = tokenIndex; // Update the moved token's index\r\n        }\r\n\r\n        // This also deletes the contents at the last position of the array\r\n        delete _tokenItemIndex[tokenId];\r\n        _userConsumables[user][quality].pop();\r\n    }\r\n\r\n    // The following functions are overrides required by Solidity.\r\n\r\n    function _burn(uint256 tokenId)\r\n        internal\r\n        override(ERC721, ERC721URIStorage)\r\n    {\r\n        uint256 number = _numberByTokenId[tokenId];\r\n        Quality quality = _qualityByNumber[number];\r\n        TypeOfItem typeOfItem = _typeByQuality[quality];\r\n         require(\r\n            typeOfItem != TypeOfItem.CARD,\r\n            \"Only tickets or spells are burnable !\"\r\n        );\r\n        super._burn(tokenId);\r\n    } \r\n\r\n    function tokenURI(uint256 tokenId)\r\n        public\r\n        view\r\n        override(ERC721, ERC721URIStorage)\r\n        returns (string memory)\r\n    {\r\n        return super.tokenURI(tokenId);\r\n    }\r\n\r\n    function supportsInterface(bytes4 interfaceId)\r\n        public\r\n        view\r\n        override(ERC721)\r\n        returns (bool)\r\n    {\r\n        return super.supportsInterface(interfaceId);\r\n    }\r\n}\r\n\r\n",
  "sourcePath": "E:\\Docs-Coding\\Greed-Islands\\api\\contracts\\GreedIslandS1.sol",
  "compiler": {
    "name": "solc",
    "version": "0.8.7+commit.e28d00a7.Emscripten.clang"
  },
  "schemaVersion": "3.4.7",
  "updatedAt": "2022-04-13T09:43:09.888Z",
  "devdoc": {
    "custom:security-contact": "security@greedislands.com",
    "kind": "dev",
    "methods": {
      "approve(address,uint256)": {
        "details": "See {IERC721-approve}."
      },
      "balanceOf(address)": {
        "details": "See {IERC721-balanceOf}."
      },
      "burn(uint256)": {
        "details": "Burns `tokenId`. See {ERC721-_burn}. Requirements: - The caller must own `tokenId` or be an approved operator."
      },
      "getApproved(uint256)": {
        "details": "See {IERC721-getApproved}."
      },
      "isApprovedForAll(address,address)": {
        "details": "See {IERC721-isApprovedForAll}."
      },
      "name()": {
        "details": "See {IERC721Metadata-name}."
      },
      "owner()": {
        "details": "Returns the address of the current owner."
      },
      "ownerOf(uint256)": {
        "details": "See {IERC721-ownerOf}."
      },
      "paused()": {
        "details": "Returns true if the contract is paused, and false otherwise."
      },
      "renounceOwnership()": {
        "details": "Leaves the contract without owner. It will not be possible to call `onlyOwner` functions anymore. Can only be called by the current owner. NOTE: Renouncing ownership will leave the contract without an owner, thereby removing any functionality that is only available to the owner."
      },
      "safeTransferFrom(address,address,uint256)": {
        "details": "See {IERC721-safeTransferFrom}."
      },
      "safeTransferFrom(address,address,uint256,bytes)": {
        "details": "See {IERC721-safeTransferFrom}."
      },
      "setApprovalForAll(address,bool)": {
        "details": "See {IERC721-setApprovalForAll}."
      },
      "supportsInterface(bytes4)": {
        "details": "See {IERC165-supportsInterface}."
      },
      "symbol()": {
        "details": "See {IERC721Metadata-symbol}."
      },
      "transferFrom(address,address,uint256)": {
        "details": "See {IERC721-transferFrom}."
      },
      "transferOwnership(address)": {
        "details": "Transfers ownership of the contract to a new account (`newOwner`). Can only be called by the current owner."
      }
    },
    "version": 1
  },
  "userdoc": {
    "kind": "user",
    "methods": {},
    "version": 1
  }
}