{
  "contractName": "GreedClaim",
  "abi": [
    {
      "anonymous": false,
      "inputs": [
        {
          "indexed": true,
          "internalType": "address",
          "name": "previousOwner",
          "type": "address"
        },
        {
          "indexed": true,
          "internalType": "address",
          "name": "newOwner",
          "type": "address"
        }
      ],
      "name": "OwnershipTransferred",
      "type": "event"
    },
    {
      "anonymous": false,
      "inputs": [
        {
          "indexed": false,
          "internalType": "address",
          "name": "account",
          "type": "address"
        }
      ],
      "name": "Paused",
      "type": "event"
    },
    {
      "anonymous": false,
      "inputs": [
        {
          "indexed": false,
          "internalType": "address",
          "name": "account",
          "type": "address"
        }
      ],
      "name": "Unpaused",
      "type": "event"
    },
    {
      "anonymous": false,
      "inputs": [
        {
          "indexed": true,
          "internalType": "address",
          "name": "account",
          "type": "address"
        }
      ],
      "name": "nowNotOver",
      "type": "event"
    },
    {
      "anonymous": false,
      "inputs": [
        {
          "indexed": true,
          "internalType": "address",
          "name": "account",
          "type": "address"
        }
      ],
      "name": "nowOver",
      "type": "event"
    },
    {
      "anonymous": false,
      "inputs": [
        {
          "indexed": true,
          "internalType": "address",
          "name": "account",
          "type": "address"
        }
      ],
      "name": "withdrawNotStarted",
      "type": "event"
    },
    {
      "anonymous": false,
      "inputs": [
        {
          "indexed": true,
          "internalType": "address",
          "name": "account",
          "type": "address"
        },
        {
          "indexed": true,
          "internalType": "uint256",
          "name": "limitDate",
          "type": "uint256"
        },
        {
          "indexed": true,
          "internalType": "uint256",
          "name": "cashPrize",
          "type": "uint256"
        }
      ],
      "name": "withdrawStarted",
      "type": "event"
    },
    {
      "anonymous": false,
      "inputs": [
        {
          "indexed": true,
          "internalType": "address",
          "name": "to",
          "type": "address"
        },
        {
          "indexed": true,
          "internalType": "uint256",
          "name": "balance",
          "type": "uint256"
        },
        {
          "indexed": true,
          "internalType": "uint256",
          "name": "amount",
          "type": "uint256"
        }
      ],
      "name": "withdrawed",
      "type": "event"
    },
    {
      "inputs": [],
      "name": "_cashPrize",
      "outputs": [
        {
          "internalType": "uint256",
          "name": "",
          "type": "uint256"
        }
      ],
      "stateMutability": "view",
      "type": "function"
    },
    {
      "inputs": [
        {
          "internalType": "enum ItemsConfig.Quality",
          "name": "",
          "type": "uint8"
        }
      ],
      "name": "_isSellable",
      "outputs": [
        {
          "internalType": "bool",
          "name": "",
          "type": "bool"
        }
      ],
      "stateMutability": "view",
      "type": "function"
    },
    {
      "inputs": [
        {
          "internalType": "uint256",
          "name": "",
          "type": "uint256"
        }
      ],
      "name": "_itemExists",
      "outputs": [
        {
          "internalType": "bool",
          "name": "",
          "type": "bool"
        }
      ],
      "stateMutability": "view",
      "type": "function"
    },
    {
      "inputs": [
        {
          "internalType": "enum ItemsConfig.Quality",
          "name": "",
          "type": "uint8"
        }
      ],
      "name": "_maxByQuality",
      "outputs": [
        {
          "internalType": "uint256",
          "name": "",
          "type": "uint256"
        }
      ],
      "stateMutability": "view",
      "type": "function"
    },
    {
      "inputs": [
        {
          "internalType": "enum ItemsConfig.Quality",
          "name": "",
          "type": "uint8"
        }
      ],
      "name": "_mintPriceByQuality",
      "outputs": [
        {
          "internalType": "uint256",
          "name": "",
          "type": "uint256"
        }
      ],
      "stateMutability": "view",
      "type": "function"
    },
    {
      "inputs": [
        {
          "internalType": "uint256",
          "name": "",
          "type": "uint256"
        }
      ],
      "name": "_numberByTokenId",
      "outputs": [
        {
          "internalType": "uint256",
          "name": "",
          "type": "uint256"
        }
      ],
      "stateMutability": "view",
      "type": "function"
    },
    {
      "inputs": [],
      "name": "_over",
      "outputs": [
        {
          "internalType": "bool",
          "name": "",
          "type": "bool"
        }
      ],
      "stateMutability": "view",
      "type": "function"
    },
    {
      "inputs": [
        {
          "internalType": "uint256",
          "name": "",
          "type": "uint256"
        }
      ],
      "name": "_qualityByNumber",
      "outputs": [
        {
          "internalType": "enum ItemsConfig.Quality",
          "name": "",
          "type": "uint8"
        }
      ],
      "stateMutability": "view",
      "type": "function"
    },
    {
      "inputs": [
        {
          "internalType": "enum ItemsConfig.Quality",
          "name": "",
          "type": "uint8"
        }
      ],
      "name": "_ratioByQuality",
      "outputs": [
        {
          "internalType": "uint256",
          "name": "",
          "type": "uint256"
        }
      ],
      "stateMutability": "view",
      "type": "function"
    },
    {
      "inputs": [],
      "name": "_ratioToPercent",
      "outputs": [
        {
          "internalType": "uint256",
          "name": "",
          "type": "uint256"
        }
      ],
      "stateMutability": "view",
      "type": "function"
    },
    {
      "inputs": [
        {
          "internalType": "address",
          "name": "",
          "type": "address"
        }
      ],
      "name": "_refunded",
      "outputs": [
        {
          "internalType": "bool",
          "name": "",
          "type": "bool"
        }
      ],
      "stateMutability": "view",
      "type": "function"
    },
    {
      "inputs": [
        {
          "internalType": "enum ItemsConfig.Quality",
          "name": "quality",
          "type": "uint8"
        },
        {
          "internalType": "bool",
          "name": "sellable",
          "type": "bool"
        }
      ],
      "name": "_setSellable",
      "outputs": [],
      "stateMutability": "nonpayable",
      "type": "function"
    },
    {
      "inputs": [
        {
          "internalType": "uint256",
          "name": "",
          "type": "uint256"
        }
      ],
      "name": "_tokenItemIndex",
      "outputs": [
        {
          "internalType": "uint256",
          "name": "",
          "type": "uint256"
        }
      ],
      "stateMutability": "view",
      "type": "function"
    },
    {
      "inputs": [
        {
          "internalType": "enum ItemsConfig.Quality",
          "name": "",
          "type": "uint8"
        }
      ],
      "name": "_typeByQuality",
      "outputs": [
        {
          "internalType": "enum ItemsConfig.TypeOfItem",
          "name": "",
          "type": "uint8"
        }
      ],
      "stateMutability": "view",
      "type": "function"
    },
    {
      "inputs": [
        {
          "internalType": "address",
          "name": "",
          "type": "address"
        },
        {
          "internalType": "uint256",
          "name": "",
          "type": "uint256"
        },
        {
          "internalType": "uint256",
          "name": "",
          "type": "uint256"
        }
      ],
      "name": "_userCards",
      "outputs": [
        {
          "internalType": "uint256",
          "name": "",
          "type": "uint256"
        }
      ],
      "stateMutability": "view",
      "type": "function"
    },
    {
      "inputs": [
        {
          "internalType": "address",
          "name": "",
          "type": "address"
        },
        {
          "internalType": "enum ItemsConfig.Quality",
          "name": "",
          "type": "uint8"
        },
        {
          "internalType": "uint256",
          "name": "",
          "type": "uint256"
        }
      ],
      "name": "_userConsumables",
      "outputs": [
        {
          "internalType": "uint256",
          "name": "",
          "type": "uint256"
        }
      ],
      "stateMutability": "view",
      "type": "function"
    },
    {
      "inputs": [],
      "name": "_withdrawLength",
      "outputs": [
        {
          "internalType": "uint256",
          "name": "",
          "type": "uint256"
        }
      ],
      "stateMutability": "view",
      "type": "function"
    },
    {
      "inputs": [],
      "name": "_withdrawLimitDate",
      "outputs": [
        {
          "internalType": "uint256",
          "name": "",
          "type": "uint256"
        }
      ],
      "stateMutability": "view",
      "type": "function"
    },
    {
      "inputs": [],
      "name": "_withdrawStarted",
      "outputs": [
        {
          "internalType": "bool",
          "name": "",
          "type": "bool"
        }
      ],
      "stateMutability": "view",
      "type": "function"
    },
    {
      "inputs": [
        {
          "internalType": "address",
          "name": "user",
          "type": "address"
        },
        {
          "internalType": "uint256",
          "name": "number",
          "type": "uint256"
        }
      ],
      "name": "getUserCards",
      "outputs": [
        {
          "internalType": "uint256[]",
          "name": "",
          "type": "uint256[]"
        }
      ],
      "stateMutability": "view",
      "type": "function"
    },
    {
      "inputs": [
        {
          "internalType": "address",
          "name": "user",
          "type": "address"
        },
        {
          "internalType": "enum ItemsConfig.Quality",
          "name": "quality",
          "type": "uint8"
        }
      ],
      "name": "getUserConsumables",
      "outputs": [
        {
          "internalType": "uint256[]",
          "name": "",
          "type": "uint256[]"
        }
      ],
      "stateMutability": "view",
      "type": "function"
    },
    {
      "inputs": [],
      "name": "owner",
      "outputs": [
        {
          "internalType": "address",
          "name": "",
          "type": "address"
        }
      ],
      "stateMutability": "view",
      "type": "function"
    },
    {
      "inputs": [],
      "name": "paused",
      "outputs": [
        {
          "internalType": "bool",
          "name": "",
          "type": "bool"
        }
      ],
      "stateMutability": "view",
      "type": "function"
    },
    {
      "inputs": [],
      "name": "renounceOwnership",
      "outputs": [],
      "stateMutability": "nonpayable",
      "type": "function"
    },
    {
      "inputs": [
        {
          "internalType": "uint256",
          "name": "price",
          "type": "uint256"
        },
        {
          "internalType": "enum ItemsConfig.Quality",
          "name": "quality",
          "type": "uint8"
        }
      ],
      "name": "setPriceByQuality",
      "outputs": [],
      "stateMutability": "nonpayable",
      "type": "function"
    },
    {
      "inputs": [
        {
          "internalType": "enum ItemsConfig.Quality[]",
          "name": "qualityOfNumber",
          "type": "uint8[]"
        }
      ],
      "name": "setQualityByNumber",
      "outputs": [],
      "stateMutability": "nonpayable",
      "type": "function"
    },
    {
      "inputs": [
        {
          "internalType": "enum ItemsConfig.TypeOfItem",
          "name": "typeOfItem",
          "type": "uint8"
        },
        {
          "internalType": "enum ItemsConfig.Quality",
          "name": "quality",
          "type": "uint8"
        }
      ],
      "name": "setTypeByQuality",
      "outputs": [],
      "stateMutability": "nonpayable",
      "type": "function"
    },
    {
      "inputs": [
        {
          "internalType": "address",
          "name": "newOwner",
          "type": "address"
        }
      ],
      "name": "transferOwnership",
      "outputs": [],
      "stateMutability": "nonpayable",
      "type": "function"
    },
    {
      "inputs": [],
      "name": "contractBalance",
      "outputs": [
        {
          "internalType": "uint256",
          "name": "",
          "type": "uint256"
        }
      ],
      "stateMutability": "view",
      "type": "function"
    },
    {
      "inputs": [],
      "name": "pause",
      "outputs": [],
      "stateMutability": "nonpayable",
      "type": "function"
    },
    {
      "inputs": [],
      "name": "unpause",
      "outputs": [],
      "stateMutability": "nonpayable",
      "type": "function"
    },
    {
      "inputs": [],
      "name": "setOver",
      "outputs": [],
      "stateMutability": "nonpayable",
      "type": "function"
    },
    {
      "inputs": [],
      "name": "setNotOver",
      "outputs": [],
      "stateMutability": "nonpayable",
      "type": "function"
    },
    {
      "inputs": [],
      "name": "setWithdrawStarted",
      "outputs": [],
      "stateMutability": "nonpayable",
      "type": "function"
    },
    {
      "inputs": [],
      "name": "setWithdrawNotStarted",
      "outputs": [],
      "stateMutability": "nonpayable",
      "type": "function"
    },
    {
      "inputs": [],
      "name": "withdraw",
      "outputs": [],
      "stateMutability": "payable",
      "type": "function"
    },
    {
      "inputs": [],
      "name": "cleanContract",
      "outputs": [],
      "stateMutability": "payable",
      "type": "function"
    }
  ],
  "bytecode": "0x60806040526102586011556305f5e1006012553480156200001f57600080fd5b5062000040620000346200006860201b60201c565b6200007060201b60201c565b60008060146101000a81548160ff0219169083151502179055506001600b8190555062000134565b600033905090565b60008060009054906101000a900473ffffffffffffffffffffffffffffffffffffffff169050816000806101000a81548173ffffffffffffffffffffffffffffffffffffffff021916908373ffffffffffffffffffffffffffffffffffffffff1602179055508173ffffffffffffffffffffffffffffffffffffffff168173ffffffffffffffffffffffffffffffffffffffff167f8be0079c531659141344cd1fd0a4f28419497f9722a3daafe3b4186f6b6457e060405160405180910390a35050565b6130ae80620001446000396000f3fe60806040526004361061021a5760003560e01c8063715018a6116101235780639c077402116100ab578063ce26e0c41161006f578063ce26e0c414610797578063d266133d146107d4578063dcdb4db7146107fd578063e51ff3631461083a578063f2fde38b146108515761021a565b80639c077402146106b4578063a2587579146106dd578063acd2ba89146106f4578063b668422b14610731578063bad53d571461076e5761021a565b80638456cb59116100f25780638456cb59146105df5780638b7afe2e146105f65780638da5cb5b146106215780639848d9091461064c5780639be68353146106895761021a565b8063715018a61461054457806376c98cfe1461055b5780637be842dd146105985780638288c868146105a25761021a565b80633f4ba83a116101a65780634e249ae2116101755780634e249ae21461044b57806354cd93d0146104885780635516a782146104c55780635c975abb14610502578063687079611461052d5761021a565b80633f4ba83a146103a3578063407fc898146103ba57806346ebc79f146103e35780634b5058c4146104205761021a565b806320cf9c99116101ed57806320cf9c99146102ef5780632ba551141461032c578063335de35b146103575780633730405b146103825780633ccfd60b146103995761021a565b806301e4cbfe1461021f57806306c8ffcd1461024a578063073bf2bc146102875780631ec412ae146102c4575b600080fd5b34801561022b57600080fd5b5061023461087a565b6040516102419190612977565b60405180910390f35b34801561025657600080fd5b50610271600480360381019061026c919061216b565b610880565b60405161027e9190612724565b60405180910390f35b34801561029357600080fd5b506102ae60048036038101906102a991906122da565b61094d565b6040516102bb9190612977565b60405180910390f35b3480156102d057600080fd5b506102d9610965565b6040516102e69190612977565b60405180910390f35b3480156102fb57600080fd5b5061031660048036038101906103119190612387565b61096b565b6040516103239190612746565b60405180910390f35b34801561033857600080fd5b5061034161098b565b60405161034e9190612746565b60405180910390f35b34801561036357600080fd5b5061036c61099e565b6040516103799190612977565b60405180910390f35b34801561038e57600080fd5b506103976109a4565b005b6103a1610ae5565b005b3480156103af57600080fd5b506103b8610e99565b005b3480156103c657600080fd5b506103e160048036038101906103dc91906123b4565b610f75565b005b3480156103ef57600080fd5b5061040a600480360381019061040591906122da565b611031565b604051610417919061277c565b60405180910390f35b34801561042c57600080fd5b50610435611051565b6040516104429190612977565b60405180910390f35b34801561045757600080fd5b50610472600480360381019061046d91906121fe565b611057565b60405161047f9190612724565b60405180910390f35b34801561049457600080fd5b506104af60048036038101906104aa91906122da565b611100565b6040516104bc9190612746565b60405180910390f35b3480156104d157600080fd5b506104ec60048036038101906104e79190612387565b611120565b6040516104f99190612761565b60405180910390f35b34801561050e57600080fd5b50610517611140565b6040516105249190612746565b60405180910390f35b34801561053957600080fd5b50610542611156565b005b34801561055057600080fd5b506105596112bc565b005b34801561056757600080fd5b50610582600480360381019061057d91906121ab565b611344565b60405161058f9190612977565b60405180910390f35b6105a0611382565b005b3480156105ae57600080fd5b506105c960048036038101906105c4919061223e565b6115c1565b6040516105d69190612977565b60405180910390f35b3480156105eb57600080fd5b506105f46115ff565b005b34801561060257600080fd5b5061060b611685565b6040516106189190612977565b60405180910390f35b34801561062d57600080fd5b5061063661168d565b6040516106439190612709565b60405180910390f35b34801561065857600080fd5b50610673600480360381019061066e91906122da565b6116b6565b6040516106809190612977565b60405180910390f35b34801561069557600080fd5b5061069e6116ce565b6040516106ab9190612746565b60405180910390f35b3480156106c057600080fd5b506106db60048036038101906106d69190612307565b6116e1565b005b3480156106e957600080fd5b506106f26117b0565b005b34801561070057600080fd5b5061071b6004803603810190610716919061213e565b61189b565b6040516107289190612746565b60405180910390f35b34801561073d57600080fd5b5061075860048036038101906107539190612387565b6118bb565b6040516107659190612977565b60405180910390f35b34801561077a57600080fd5b5061079560048036038101906107909190612291565b6118d3565b005b3480156107a357600080fd5b506107be60048036038101906107b99190612387565b6119f3565b6040516107cb9190612977565b60405180910390f35b3480156107e057600080fd5b506107fb60048036038101906107f69190612347565b611a0b565b005b34801561080957600080fd5b50610824600480360381019061081f91906122da565b611aea565b6040516108319190612977565b60405180910390f35b34801561084657600080fd5b5061084f611b02565b005b34801561085d57600080fd5b506108786004803603810190610873919061213e565b611c3b565b005b60105481565b6060600960008473ffffffffffffffffffffffffffffffffffffffff1673ffffffffffffffffffffffffffffffffffffffff168152602001908152602001600020600083600d8111156108d6576108d5612c83565b5b600d8111156108e8576108e7612c83565b5b815260200190815260200160002080548060200260200160405190810160405280929190818152602001828054801561094057602002820191906000526020600020905b81548152602001906001019080831161092c575b5050505050905092915050565b600c6020528060005260406000206000915090505481565b60115481565b60076020528060005260406000206000915054906101000a900460ff1681565b600f60009054906101000a900460ff1681565b600e5481565b6109ac611d33565b73ffffffffffffffffffffffffffffffffffffffff166109ca61168d565b73ffffffffffffffffffffffffffffffffffffffff1614610a20576040517f08c379a0000000000000000000000000000000000000000000000000000000008152600401610a1790612877565b60405180910390fd5b60001515600f60019054906101000a900460ff16151514610a76576040517f08c379a0000000000000000000000000000000000000000000000000000000008152600401610a6d90612897565b60405180910390fd5b610a7e611d3b565b6000600f60006101000a81548160ff021916908315150217905550610aa1611d33565b73ffffffffffffffffffffffffffffffffffffffff167f9086411bd6e485508f26caef41c22aabee5025a9fdde4cd1d03fbc4dd0cdeb2c60405160405180910390a2565b6002600b541415610b2b576040517f08c379a0000000000000000000000000000000000000000000000000000000008152600401610b2290612937565b60405180910390fd5b6002600b8190555060011515600f60009054906101000a900460ff16151514610b89576040517f08c379a0000000000000000000000000000000000000000000000000000000008152600401610b80906127d7565b60405180910390fd5b60011515600f60019054906101000a900460ff16151514610bdf576040517f08c379a0000000000000000000000000000000000000000000000000000000008152600401610bd6906128d7565b60405180910390fd5b60011515600d60003373ffffffffffffffffffffffffffffffffffffffff1673ffffffffffffffffffffffffffffffffffffffff16815260200190815260200160002060009054906101000a900460ff1615151415610c73576040517f08c379a0000000000000000000000000000000000000000000000000000000008152600401610c6a906128b7565b60405180910390fd5b600080600090505b60648111610d5d576000600860003373ffffffffffffffffffffffffffffffffffffffff1673ffffffffffffffffffffffffffffffffffffffff16815260200190815260200160002060008381526020019081526020016000208054905014610d4a5760006004600083815260200190815260200160002060009054906101000a900460ff169050600c600082600d811115610d1a57610d19612c83565b5b600d811115610d2c57610d2b612c83565b5b81526020019081526020016000205483610d469190612a38565b9250505b8080610d5590612bdc565b915050610c7b565b506000811415610da2576040517f08c379a0000000000000000000000000000000000000000000000000000000008152600401610d99906128f7565b60405180910390fd5b6000479050600060125483600e54610dba9190612abf565b610dc49190612a8e565b90506001600d60003373ffffffffffffffffffffffffffffffffffffffff1673ffffffffffffffffffffffffffffffffffffffff16815260200190815260200160002060006101000a81548160ff021916908315150217905550610e47813373ffffffffffffffffffffffffffffffffffffffff16611ddc90919063ffffffff16565b80823373ffffffffffffffffffffffffffffffffffffffff167f712eabc474638dce3d30390bd156f0358c12e7b9f6c82599740ba2bdac7f1bd060405160405180910390a45050506001600b81905550565b610ea1611d33565b73ffffffffffffffffffffffffffffffffffffffff16610ebf61168d565b73ffffffffffffffffffffffffffffffffffffffff1614610f15576040517f08c379a0000000000000000000000000000000000000000000000000000000008152600401610f0c90612877565b60405180910390fd5b60001515600f60009054906101000a900460ff16151514610f6b576040517f08c379a0000000000000000000000000000000000000000000000000000000008152600401610f6290612917565b60405180910390fd5b610f73611d3b565b565b610f7d611d33565b73ffffffffffffffffffffffffffffffffffffffff16610f9b61168d565b73ffffffffffffffffffffffffffffffffffffffff1614610ff1576040517f08c379a0000000000000000000000000000000000000000000000000000000008152600401610fe890612877565b60405180910390fd5b816002600083600d81111561100957611008612c83565b5b600d81111561101b5761101a612c83565b5b8152602001908152602001600020819055505050565b60056020528060005260406000206000915054906101000a900460ff1681565b60125481565b6060600860008473ffffffffffffffffffffffffffffffffffffffff1673ffffffffffffffffffffffffffffffffffffffff16815260200190815260200160002060008381526020019081526020016000208054806020026020016040519081016040528092919081815260200182805480156110f357602002820191906000526020600020905b8154815260200190600101908083116110df575b5050505050905092915050565b60036020528060005260406000206000915054906101000a900460ff1681565b60046020528060005260406000206000915054906101000a900460ff1681565b60008060149054906101000a900460ff16905090565b61115e611d33565b73ffffffffffffffffffffffffffffffffffffffff1661117c61168d565b73ffffffffffffffffffffffffffffffffffffffff16146111d2576040517f08c379a00000000000000000000000000000000000000000000000000000000081526004016111c990612877565b60405180910390fd5b60011515600f60009054906101000a900460ff16151514611228576040517f08c379a000000000000000000000000000000000000000000000000000000000815260040161121f906127d7565b60405180910390fd5b6001600f60016101000a81548160ff021916908315150217905550601154426112519190612a38565b6010819055506002476112649190612a8e565b600e81905550600e54601054611278611d33565b73ffffffffffffffffffffffffffffffffffffffff167f426bed13f27def8e14c826ba1977c6018e13a9b7fe49dfd5ad4c1148d75e99c160405160405180910390a4565b6112c4611d33565b73ffffffffffffffffffffffffffffffffffffffff166112e261168d565b73ffffffffffffffffffffffffffffffffffffffff1614611338576040517f08c379a000000000000000000000000000000000000000000000000000000000815260040161132f90612877565b60405180910390fd5b6113426000611ed0565b565b6009602052826000526040600020602052816000526040600020818154811061136c57600080fd5b9060005260206000200160009250925050505481565b61138a611d33565b73ffffffffffffffffffffffffffffffffffffffff166113a861168d565b73ffffffffffffffffffffffffffffffffffffffff16146113fe576040517f08c379a00000000000000000000000000000000000000000000000000000000081526004016113f590612877565b60405180910390fd5b6002600b541415611444576040517f08c379a000000000000000000000000000000000000000000000000000000000815260040161143b90612937565b60405180910390fd5b6002600b8190555060011515600f60009054906101000a900460ff161515146114a2576040517f08c379a0000000000000000000000000000000000000000000000000000000008152600401611499906127d7565b60405180910390fd5b60011515600f60019054906101000a900460ff161515146114f8576040517f08c379a00000000000000000000000000000000000000000000000000000000081526004016114ef90612957565b60405180910390fd5b60105442101561153d576040517f08c379a000000000000000000000000000000000000000000000000000000000815260040161153490612857565b60405180910390fd5b60004790506000479050611570813373ffffffffffffffffffffffffffffffffffffffff16611ddc90919063ffffffff16565b80823373ffffffffffffffffffffffffffffffffffffffff167f712eabc474638dce3d30390bd156f0358c12e7b9f6c82599740ba2bdac7f1bd060405160405180910390a450506001600b81905550565b600860205282600052604060002060205281600052604060002081815481106115e957600080fd5b9060005260206000200160009250925050505481565b611607611d33565b73ffffffffffffffffffffffffffffffffffffffff1661162561168d565b73ffffffffffffffffffffffffffffffffffffffff161461167b576040517f08c379a000000000000000000000000000000000000000000000000000000000815260040161167290612877565b60405180910390fd5b611683611f94565b565b600047905090565b60008060009054906101000a900473ffffffffffffffffffffffffffffffffffffffff16905090565b60026020528060005260406000206000915090505481565b600f60019054906101000a900460ff1681565b6116e9611d33565b73ffffffffffffffffffffffffffffffffffffffff1661170761168d565b73ffffffffffffffffffffffffffffffffffffffff161461175d576040517f08c379a000000000000000000000000000000000000000000000000000000000815260040161175490612877565b60405180910390fd5b806003600084600d81111561177557611774612c83565b5b600d81111561178757611786612c83565b5b815260200190815260200160002060006101000a81548160ff0219169083151502179055505050565b6117b8611d33565b73ffffffffffffffffffffffffffffffffffffffff166117d661168d565b73ffffffffffffffffffffffffffffffffffffffff161461182c576040517f08c379a000000000000000000000000000000000000000000000000000000000815260040161182390612877565b60405180910390fd5b611834611f94565b6001600f60006101000a81548160ff021916908315150217905550611857611d33565b73ffffffffffffffffffffffffffffffffffffffff167f47a09fe6b5587db5e8c4c335fc890bc5f3cc7af307e7e301cf74f6b045e2c21660405160405180910390a2565b600d6020528060005260406000206000915054906101000a900460ff1681565b60066020528060005260406000206000915090505481565b6118db611d33565b73ffffffffffffffffffffffffffffffffffffffff166118f961168d565b73ffffffffffffffffffffffffffffffffffffffff161461194f576040517f08c379a000000000000000000000000000000000000000000000000000000000815260040161194690612877565b60405180910390fd5b60005b81518110156119ef5781818151811061196e5761196d612cb2565b5b60200260200101516004600083815260200190815260200160002060006101000a81548160ff0219169083600d8111156119ab576119aa612c83565b5b021790555060016007600083815260200190815260200160002060006101000a81548160ff02191690831515021790555080806119e790612bdc565b915050611952565b5050565b600a6020528060005260406000206000915090505481565b611a13611d33565b73ffffffffffffffffffffffffffffffffffffffff16611a3161168d565b73ffffffffffffffffffffffffffffffffffffffff1614611a87576040517f08c379a0000000000000000000000000000000000000000000000000000000008152600401611a7e90612877565b60405180910390fd5b816005600083600d811115611a9f57611a9e612c83565b5b600d811115611ab157611ab0612c83565b5b815260200190815260200160002060006101000a81548160ff02191690836002811115611ae157611ae0612c83565b5b02179055505050565b60016020528060005260406000206000915090505481565b611b0a611d33565b73ffffffffffffffffffffffffffffffffffffffff16611b2861168d565b73ffffffffffffffffffffffffffffffffffffffff1614611b7e576040517f08c379a0000000000000000000000000000000000000000000000000000000008152600401611b7590612877565b60405180910390fd5b60011515600f60009054906101000a900460ff16151514611bd4576040517f08c379a0000000000000000000000000000000000000000000000000000000008152600401611bcb906127d7565b60405180910390fd5b6000600f60016101000a81548160ff021916908315150217905550611bf7611d33565b73ffffffffffffffffffffffffffffffffffffffff167ff9af5dc79a2465c79cca065d74c9bac6c2e6ea05c8f3ec79cb3d1d24a25de74c60405160405180910390a2565b611c43611d33565b73ffffffffffffffffffffffffffffffffffffffff16611c6161168d565b73ffffffffffffffffffffffffffffffffffffffff1614611cb7576040517f08c379a0000000000000000000000000000000000000000000000000000000008152600401611cae90612877565b60405180910390fd5b600073ffffffffffffffffffffffffffffffffffffffff168173ffffffffffffffffffffffffffffffffffffffff161415611d27576040517f08c379a0000000000000000000000000000000000000000000000000000000008152600401611d1e906127b7565b60405180910390fd5b611d3081611ed0565b50565b600033905090565b611d43611140565b611d82576040517f08c379a0000000000000000000000000000000000000000000000000000000008152600401611d7990612797565b60405180910390fd5b60008060146101000a81548160ff0219169083151502179055507f5db9ee0a495bf2e6ff9c91a7834c1ba4fdd244a5e8aa4e537bd38aeae4b073aa611dc5611d33565b604051611dd29190612709565b60405180910390a1565b80471015611e1f576040517f08c379a0000000000000000000000000000000000000000000000000000000008152600401611e1690612817565b60405180910390fd5b60008273ffffffffffffffffffffffffffffffffffffffff1682604051611e45906126f4565b60006040518083038185875af1925050503d8060008114611e82576040519150601f19603f3d011682016040523d82523d6000602084013e611e87565b606091505b5050905080611ecb576040517f08c379a0000000000000000000000000000000000000000000000000000000008152600401611ec2906127f7565b60405180910390fd5b505050565b60008060009054906101000a900473ffffffffffffffffffffffffffffffffffffffff169050816000806101000a81548173ffffffffffffffffffffffffffffffffffffffff021916908373ffffffffffffffffffffffffffffffffffffffff1602179055508173ffffffffffffffffffffffffffffffffffffffff168173ffffffffffffffffffffffffffffffffffffffff167f8be0079c531659141344cd1fd0a4f28419497f9722a3daafe3b4186f6b6457e060405160405180910390a35050565b611f9c611140565b15611fdc576040517f08c379a0000000000000000000000000000000000000000000000000000000008152600401611fd390612837565b60405180910390fd5b6001600060146101000a81548160ff0219169083151502179055507f62e78cea01bee320cd4e420270b5ea74000d11b0c9f74754ebdbfc544b05a258612020611d33565b60405161202d9190612709565b60405180910390a1565b600061204a612045846129b7565b612992565b9050808382526020820190508285602086028201111561206d5761206c612d15565b5b60005b8581101561209d578161208388826120ff565b845260208401935060208301925050600181019050612070565b5050509392505050565b6000813590506120b681613013565b92915050565b600082601f8301126120d1576120d0612d10565b5b81356120e1848260208601612037565b91505092915050565b6000813590506120f98161302a565b92915050565b60008135905061210e81613041565b92915050565b60008135905061212381613051565b92915050565b60008135905061213881613061565b92915050565b60006020828403121561215457612153612d1f565b5b6000612162848285016120a7565b91505092915050565b6000806040838503121561218257612181612d1f565b5b6000612190858286016120a7565b92505060206121a1858286016120ff565b9150509250929050565b6000806000606084860312156121c4576121c3612d1f565b5b60006121d2868287016120a7565b93505060206121e3868287016120ff565b92505060406121f486828701612129565b9150509250925092565b6000806040838503121561221557612214612d1f565b5b6000612223858286016120a7565b925050602061223485828601612129565b9150509250929050565b60008060006060848603121561225757612256612d1f565b5b6000612265868287016120a7565b935050602061227686828701612129565b925050604061228786828701612129565b9150509250925092565b6000602082840312156122a7576122a6612d1f565b5b600082013567ffffffffffffffff8111156122c5576122c4612d1a565b5b6122d1848285016120bc565b91505092915050565b6000602082840312156122f0576122ef612d1f565b5b60006122fe848285016120ff565b91505092915050565b6000806040838503121561231e5761231d612d1f565b5b600061232c858286016120ff565b925050602061233d858286016120ea565b9150509250929050565b6000806040838503121561235e5761235d612d1f565b5b600061236c85828601612114565b925050602061237d858286016120ff565b9150509250929050565b60006020828403121561239d5761239c612d1f565b5b60006123ab84828501612129565b91505092915050565b600080604083850312156123cb576123ca612d1f565b5b60006123d985828601612129565b92505060206123ea858286016120ff565b9150509250929050565b600061240083836126d6565b60208301905092915050565b61241581612b19565b82525050565b6000612426826129f3565b6124308185612a0b565b935061243b836129e3565b8060005b8381101561246c57815161245388826123f4565b975061245e836129fe565b92505060018101905061243f565b5085935050505092915050565b61248281612b2b565b82525050565b61249181612b87565b82525050565b6124a081612b99565b82525050565b60006124b3601483612a27565b91506124be82612d35565b602082019050919050565b60006124d6602683612a27565b91506124e182612d5e565b604082019050919050565b60006124f9601283612a27565b915061250482612dad565b602082019050919050565b600061251c603a83612a27565b915061252782612dd6565b604082019050919050565b600061253f601d83612a27565b915061254a82612e25565b602082019050919050565b6000612562601083612a27565b915061256d82612e4e565b602082019050919050565b6000612585601383612a27565b915061259082612e77565b602082019050919050565b60006125a8602083612a27565b91506125b382612ea0565b602082019050919050565b60006125cb600083612a1c565b91506125d682612ec9565b600082019050919050565b60006125ee601583612a27565b91506125f982612ecc565b602082019050919050565b6000612611601b83612a27565b915061261c82612ef5565b602082019050919050565b6000612634601683612a27565b915061263f82612f1e565b602082019050919050565b6000612657601983612a27565b915061266282612f47565b602082019050919050565b600061267a601483612a27565b915061268582612f70565b602082019050919050565b600061269d601f83612a27565b91506126a882612f99565b602082019050919050565b60006126c0601783612a27565b91506126cb82612fc2565b602082019050919050565b6126df81612b7d565b82525050565b6126ee81612b7d565b82525050565b60006126ff826125be565b9150819050919050565b600060208201905061271e600083018461240c565b92915050565b6000602082019050818103600083015261273e818461241b565b905092915050565b600060208201905061275b6000830184612479565b92915050565b60006020820190506127766000830184612488565b92915050565b60006020820190506127916000830184612497565b92915050565b600060208201905081810360008301526127b0816124a6565b9050919050565b600060208201905081810360008301526127d0816124c9565b9050919050565b600060208201905081810360008301526127f0816124ec565b9050919050565b600060208201905081810360008301526128108161250f565b9050919050565b6000602082019050818103600083015261283081612532565b9050919050565b6000602082019050818103600083015261285081612555565b9050919050565b6000602082019050818103600083015261287081612578565b9050919050565b600060208201905081810360008301526128908161259b565b9050919050565b600060208201905081810360008301526128b0816125e1565b9050919050565b600060208201905081810360008301526128d081612604565b9050919050565b600060208201905081810360008301526128f081612627565b9050919050565b600060208201905081810360008301526129108161264a565b9050919050565b600060208201905081810360008301526129308161266d565b9050919050565b6000602082019050818103600083015261295081612690565b9050919050565b60006020820190508181036000830152612970816126b3565b9050919050565b600060208201905061298c60008301846126e5565b92915050565b600061299c6129ad565b90506129a88282612bab565b919050565b6000604051905090565b600067ffffffffffffffff8211156129d2576129d1612ce1565b5b602082029050602081019050919050565b6000819050602082019050919050565b600081519050919050565b6000602082019050919050565b600082825260208201905092915050565b600081905092915050565b600082825260208201905092915050565b6000612a4382612b7d565b9150612a4e83612b7d565b9250827fffffffffffffffffffffffffffffffffffffffffffffffffffffffffffffffff03821115612a8357612a82612c25565b5b828201905092915050565b6000612a9982612b7d565b9150612aa483612b7d565b925082612ab457612ab3612c54565b5b828204905092915050565b6000612aca82612b7d565b9150612ad583612b7d565b9250817fffffffffffffffffffffffffffffffffffffffffffffffffffffffffffffffff0483118215151615612b0e57612b0d612c25565b5b828202905092915050565b6000612b2482612b5d565b9050919050565b60008115159050919050565b6000819050612b4582612feb565b919050565b6000819050612b5882612fff565b919050565b600073ffffffffffffffffffffffffffffffffffffffff82169050919050565b6000819050919050565b6000612b9282612b37565b9050919050565b6000612ba482612b4a565b9050919050565b612bb482612d24565b810181811067ffffffffffffffff82111715612bd357612bd2612ce1565b5b80604052505050565b6000612be782612b7d565b91507fffffffffffffffffffffffffffffffffffffffffffffffffffffffffffffffff821415612c1a57612c19612c25565b5b600182019050919050565b7f4e487b7100000000000000000000000000000000000000000000000000000000600052601160045260246000fd5b7f4e487b7100000000000000000000000000000000000000000000000000000000600052601260045260246000fd5b7f4e487b7100000000000000000000000000000000000000000000000000000000600052602160045260246000fd5b7f4e487b7100000000000000000000000000000000000000000000000000000000600052603260045260246000fd5b7f4e487b7100000000000000000000000000000000000000000000000000000000600052604160045260246000fd5b600080fd5b600080fd5b600080fd5b600080fd5b6000601f19601f8301169050919050565b7f5061757361626c653a206e6f7420706175736564000000000000000000000000600082015250565b7f4f776e61626c653a206e6577206f776e657220697320746865207a65726f206160008201527f6464726573730000000000000000000000000000000000000000000000000000602082015250565b7f47616d65206973206e6f74206f76657220210000000000000000000000000000600082015250565b7f416464726573733a20756e61626c6520746f2073656e642076616c75652c207260008201527f6563697069656e74206d61792068617665207265766572746564000000000000602082015250565b7f416464726573733a20696e73756666696369656e742062616c616e6365000000600082015250565b7f5061757361626c653a2070617573656400000000000000000000000000000000600082015250565b7f546f6f20736f6f6e20746f20636c65616e202100000000000000000000000000600082015250565b7f4f776e61626c653a2063616c6c6572206973206e6f7420746865206f776e6572600082015250565b50565b7f5769746864726177207374696c6c206f70656e20210000000000000000000000600082015250565b7f416c7265616479207265636569766564206120726566756e6420210000000000600082015250565b7f5769746864726177206e6f742073746172746564202100000000000000000000600082015250565b7f4e6f20532c2053532c205820636172647320666f756e64202100000000000000600082015250565b7f47616d65206973207374696c6c206f7665722021000000000000000000000000600082015250565b7f5265656e7472616e637947756172643a207265656e7472616e742063616c6c00600082015250565b7f576974686472617773206e6f7420737461727465642021000000000000000000600082015250565b600e8110612ffc57612ffb612c83565b5b50565b600381106130105761300f612c83565b5b50565b61301c81612b19565b811461302757600080fd5b50565b61303381612b2b565b811461303e57600080fd5b50565b600e811061304e57600080fd5b50565b6003811061305e57600080fd5b50565b61306a81612b7d565b811461307557600080fd5b5056fea2646970667358221220b563f256db2c4c0a164e26e254a2451340db70e45393b831819727d3a7d81d4564736f6c63430008070033",
  "immutableReferences": {},
  "source": "// SPDX-License-Identifier: MIT\npragma solidity 0.8.7;\n\nimport \"./UserItems.sol\";\nimport \"@openzeppelin/contracts/security/ReentrancyGuard.sol\";\nimport \"@openzeppelin/contracts/utils/Address.sol\";\n\ncontract GreedClaim is UserItems, ReentrancyGuard {\n    using Address for address payable;\n\n    mapping(Quality => uint256) public _ratioByQuality;\n\n    mapping(address => bool) public _refunded;\n\n    uint256 public _cashPrize;\n\n    bool public _over;\n    bool public _withdrawStarted;\n\n    uint256 public _withdrawLimitDate;\n    uint256 public _withdrawLength = 600;\n    uint256 public _ratioToPercent = 100000000;\n\n    event nowOver(address indexed account);\n\n    event nowNotOver(address indexed account);\n\n    event withdrawStarted(address indexed account, uint256 indexed limitDate, uint256 indexed cashPrize);\n\n    event withdrawNotStarted(address indexed account);\n\n    event withdrawed(\n        address indexed to,\n        uint256 indexed balance,\n        uint256 indexed amount\n    );\n\n    function contractBalance() external view returns(uint256) {\n        return address(this).balance;\n    }\n\n    function pause() external onlyOwner {\n        _pause();\n    }\n\n    function unpause() external onlyOwner {\n        require(_over == false, \"Game is still over !\");\n        _unpause();\n    }\n\n    function setOver() external onlyOwner {\n        _pause();\n        _over = true;\n        emit nowOver(_msgSender());\n    }\n\n    function setNotOver() external onlyOwner {\n        require(_withdrawStarted == false, \"Withdraw still open !\");\n        _unpause();\n        _over = false;\n        emit nowNotOver(_msgSender());\n    }\n\n    function setWithdrawStarted() external onlyOwner {\n        require(_over == true, \"Game is not over !\");\n        _withdrawStarted = true;\n        _withdrawLimitDate = block.timestamp + _withdrawLength;\n        _cashPrize = address(this).balance / 2;\n        emit withdrawStarted(_msgSender(), _withdrawLimitDate, _cashPrize);\n    }\n\n    function setWithdrawNotStarted() external onlyOwner {\n        require(_over == true, \"Game is not over !\");\n        _withdrawStarted = false;\n        emit withdrawNotStarted(_msgSender());\n    }\n\n    function withdraw() external payable nonReentrant {\n        require(_over == true, \"Game is not over !\");\n        require(_withdrawStarted == true, \"Withdraw not started !\");\n        require(_refunded[msg.sender] != true, \"Already received a refund !\");\n        uint256 ratio;\n        for (uint256 i = 0; i <= 100; i++) {\n            if (_userCards[msg.sender][i].length != 0) {\n              Quality addToRatio = _qualityByNumber[i];\n              ratio += _ratioByQuality[addToRatio]; \n            }\n        }\n        require(ratio != 0, \"No S, SS, X cards found !\");\n        uint256 balanceBeforeTransfer = address(this).balance;\n        uint256 amount = ( _cashPrize * ratio) / _ratioToPercent;\n        _refunded[msg.sender] = true;\n        payable(msg.sender).sendValue(amount);\n        emit withdrawed(msg.sender, balanceBeforeTransfer, amount);\n    }\n\n    function cleanContract() external payable onlyOwner nonReentrant {\n        require(_over == true, \"Game is not over !\");\n        require(_withdrawStarted == true, \"Withdraws not started !\");\n        require(block.timestamp >= _withdrawLimitDate, \"Too soon to clean !\");\n\n        uint256 balanceBeforeTransfer = address(this).balance;\n        uint256 amount = (address(this).balance);\n        payable(msg.sender).sendValue(amount);\n        emit withdrawed(msg.sender, balanceBeforeTransfer, amount);\n    }\n}\n",
  "sourcePath": "E:\\Docs-Coding\\Greed-Islands\\api\\contracts\\GreedClaim.sol",
  "compiler": {
    "name": "solc",
    "version": "0.8.7+commit.e28d00a7.Emscripten.clang"
  },
  "schemaVersion": "3.4.7",
  "updatedAt": "2022-04-13T09:43:09.851Z",
  "devdoc": {
    "kind": "dev",
    "methods": {
      "owner()": {
        "details": "Returns the address of the current owner."
      },
      "paused()": {
        "details": "Returns true if the contract is paused, and false otherwise."
      },
      "renounceOwnership()": {
        "details": "Leaves the contract without owner. It will not be possible to call `onlyOwner` functions anymore. Can only be called by the current owner. NOTE: Renouncing ownership will leave the contract without an owner, thereby removing any functionality that is only available to the owner."
      },
      "transferOwnership(address)": {
        "details": "Transfers ownership of the contract to a new account (`newOwner`). Can only be called by the current owner."
      }
    },
    "version": 1
  },
  "userdoc": {
    "kind": "user",
    "methods": {},
    "version": 1
  }
}