{
  "contractName": "ItemsConfig",
  "abi": [
    {
      "anonymous": false,
      "inputs": [
        {
          "indexed": true,
          "internalType": "address",
          "name": "previousOwner",
          "type": "address"
        },
        {
          "indexed": true,
          "internalType": "address",
          "name": "newOwner",
          "type": "address"
        }
      ],
      "name": "OwnershipTransferred",
      "type": "event"
    },
    {
      "anonymous": false,
      "inputs": [
        {
          "indexed": false,
          "internalType": "address",
          "name": "account",
          "type": "address"
        }
      ],
      "name": "Paused",
      "type": "event"
    },
    {
      "anonymous": false,
      "inputs": [
        {
          "indexed": false,
          "internalType": "address",
          "name": "account",
          "type": "address"
        }
      ],
      "name": "Unpaused",
      "type": "event"
    },
    {
      "inputs": [
        {
          "internalType": "enum ItemsConfig.Quality",
          "name": "",
          "type": "uint8"
        }
      ],
      "name": "_isSellable",
      "outputs": [
        {
          "internalType": "bool",
          "name": "",
          "type": "bool"
        }
      ],
      "stateMutability": "view",
      "type": "function"
    },
    {
      "inputs": [
        {
          "internalType": "uint256",
          "name": "",
          "type": "uint256"
        }
      ],
      "name": "_itemExists",
      "outputs": [
        {
          "internalType": "bool",
          "name": "",
          "type": "bool"
        }
      ],
      "stateMutability": "view",
      "type": "function"
    },
    {
      "inputs": [
        {
          "internalType": "enum ItemsConfig.Quality",
          "name": "",
          "type": "uint8"
        }
      ],
      "name": "_maxByQuality",
      "outputs": [
        {
          "internalType": "uint256",
          "name": "",
          "type": "uint256"
        }
      ],
      "stateMutability": "view",
      "type": "function"
    },
    {
      "inputs": [
        {
          "internalType": "enum ItemsConfig.Quality",
          "name": "",
          "type": "uint8"
        }
      ],
      "name": "_mintPriceByQuality",
      "outputs": [
        {
          "internalType": "uint256",
          "name": "",
          "type": "uint256"
        }
      ],
      "stateMutability": "view",
      "type": "function"
    },
    {
      "inputs": [
        {
          "internalType": "uint256",
          "name": "",
          "type": "uint256"
        }
      ],
      "name": "_numberByTokenId",
      "outputs": [
        {
          "internalType": "uint256",
          "name": "",
          "type": "uint256"
        }
      ],
      "stateMutability": "view",
      "type": "function"
    },
    {
      "inputs": [
        {
          "internalType": "uint256",
          "name": "",
          "type": "uint256"
        }
      ],
      "name": "_qualityByNumber",
      "outputs": [
        {
          "internalType": "enum ItemsConfig.Quality",
          "name": "",
          "type": "uint8"
        }
      ],
      "stateMutability": "view",
      "type": "function"
    },
    {
      "inputs": [
        {
          "internalType": "enum ItemsConfig.Quality",
          "name": "",
          "type": "uint8"
        }
      ],
      "name": "_typeByQuality",
      "outputs": [
        {
          "internalType": "enum ItemsConfig.TypeOfItem",
          "name": "",
          "type": "uint8"
        }
      ],
      "stateMutability": "view",
      "type": "function"
    },
    {
      "inputs": [],
      "name": "owner",
      "outputs": [
        {
          "internalType": "address",
          "name": "",
          "type": "address"
        }
      ],
      "stateMutability": "view",
      "type": "function"
    },
    {
      "inputs": [],
      "name": "paused",
      "outputs": [
        {
          "internalType": "bool",
          "name": "",
          "type": "bool"
        }
      ],
      "stateMutability": "view",
      "type": "function"
    },
    {
      "inputs": [],
      "name": "renounceOwnership",
      "outputs": [],
      "stateMutability": "nonpayable",
      "type": "function"
    },
    {
      "inputs": [
        {
          "internalType": "address",
          "name": "newOwner",
          "type": "address"
        }
      ],
      "name": "transferOwnership",
      "outputs": [],
      "stateMutability": "nonpayable",
      "type": "function"
    },
    {
      "inputs": [
        {
          "internalType": "enum ItemsConfig.Quality",
          "name": "quality",
          "type": "uint8"
        },
        {
          "internalType": "bool",
          "name": "sellable",
          "type": "bool"
        }
      ],
      "name": "_setSellable",
      "outputs": [],
      "stateMutability": "nonpayable",
      "type": "function"
    },
    {
      "inputs": [
        {
          "internalType": "enum ItemsConfig.Quality[]",
          "name": "qualityOfNumber",
          "type": "uint8[]"
        }
      ],
      "name": "setQualityByNumber",
      "outputs": [],
      "stateMutability": "nonpayable",
      "type": "function"
    },
    {
      "inputs": [
        {
          "internalType": "enum ItemsConfig.TypeOfItem",
          "name": "typeOfItem",
          "type": "uint8"
        },
        {
          "internalType": "enum ItemsConfig.Quality",
          "name": "quality",
          "type": "uint8"
        }
      ],
      "name": "setTypeByQuality",
      "outputs": [],
      "stateMutability": "nonpayable",
      "type": "function"
    },
    {
      "inputs": [
        {
          "internalType": "uint256",
          "name": "price",
          "type": "uint256"
        },
        {
          "internalType": "enum ItemsConfig.Quality",
          "name": "quality",
          "type": "uint8"
        }
      ],
      "name": "setPriceByQuality",
      "outputs": [],
      "stateMutability": "nonpayable",
      "type": "function"
    }
  ],
  "bytecode": "0x608060405234801561001057600080fd5b5061002d61002261004c60201b60201c565b61005460201b60201c565b60008060146101000a81548160ff021916908315150217905550610118565b600033905090565b60008060009054906101000a900473ffffffffffffffffffffffffffffffffffffffff169050816000806101000a81548173ffffffffffffffffffffffffffffffffffffffff021916908373ffffffffffffffffffffffffffffffffffffffff1602179055508173ffffffffffffffffffffffffffffffffffffffff168173ffffffffffffffffffffffffffffffffffffffff167f8be0079c531659141344cd1fd0a4f28419497f9722a3daafe3b4186f6b6457e060405160405180910390a35050565b611172806101276000396000f3fe608060405234801561001057600080fd5b50600436106100f55760003560e01c80638da5cb5b11610097578063bad53d5711610066578063bad53d5714610298578063d266133d146102b4578063dcdb4db7146102d0578063f2fde38b14610300576100f5565b80638da5cb5b146101fe5780639848d9091461021c5780639c0774021461024c578063b668422b14610268576100f5565b806354cd93d0116100d357806354cd93d0146101765780635516a782146101a65780635c975abb146101d6578063715018a6146101f4576100f5565b806320cf9c99146100fa578063407fc8981461012a57806346ebc79f14610146575b600080fd5b610114600480360381019061010f9190610c23565b61031c565b6040516101219190610d3c565b60405180910390f35b610144600480360381019061013f9190610c50565b61033c565b005b610160600480360381019061015b9190610b76565b6103f8565b60405161016d9190610d72565b60405180910390f35b610190600480360381019061018b9190610b76565b610418565b60405161019d9190610d3c565b60405180910390f35b6101c060048036038101906101bb9190610c23565b610438565b6040516101cd9190610d57565b60405180910390f35b6101de610458565b6040516101eb9190610d3c565b60405180910390f35b6101fc61046e565b005b6102066104f6565b6040516102139190610d21565b60405180910390f35b61023660048036038101906102319190610b76565b61051f565b6040516102439190610dcd565b60405180910390f35b61026660048036038101906102619190610ba3565b610537565b005b610282600480360381019061027d9190610c23565b610606565b60405161028f9190610dcd565b60405180910390f35b6102b260048036038101906102ad9190610b2d565b61061e565b005b6102ce60048036038101906102c99190610be3565b61073e565b005b6102ea60048036038101906102e59190610b76565b61081d565b6040516102f79190610dcd565b60405180910390f35b61031a60048036038101906103159190610b00565b610835565b005b60076020528060005260406000206000915054906101000a900460ff1681565b61034461092d565b73ffffffffffffffffffffffffffffffffffffffff166103626104f6565b73ffffffffffffffffffffffffffffffffffffffff16146103b8576040517f08c379a00000000000000000000000000000000000000000000000000000000081526004016103af90610dad565b60405180910390fd5b816002600083600d8111156103d0576103cf610f85565b5b600d8111156103e2576103e1610f85565b5b8152602001908152602001600020819055505050565b60056020528060005260406000206000915054906101000a900460ff1681565b60036020528060005260406000206000915054906101000a900460ff1681565b60046020528060005260406000206000915054906101000a900460ff1681565b60008060149054906101000a900460ff16905090565b61047661092d565b73ffffffffffffffffffffffffffffffffffffffff166104946104f6565b73ffffffffffffffffffffffffffffffffffffffff16146104ea576040517f08c379a00000000000000000000000000000000000000000000000000000000081526004016104e190610dad565b60405180910390fd5b6104f46000610935565b565b60008060009054906101000a900473ffffffffffffffffffffffffffffffffffffffff16905090565b60026020528060005260406000206000915090505481565b61053f61092d565b73ffffffffffffffffffffffffffffffffffffffff1661055d6104f6565b73ffffffffffffffffffffffffffffffffffffffff16146105b3576040517f08c379a00000000000000000000000000000000000000000000000000000000081526004016105aa90610dad565b60405180910390fd5b806003600084600d8111156105cb576105ca610f85565b5b600d8111156105dd576105dc610f85565b5b815260200190815260200160002060006101000a81548160ff0219169083151502179055505050565b60066020528060005260406000206000915090505481565b61062661092d565b73ffffffffffffffffffffffffffffffffffffffff166106446104f6565b73ffffffffffffffffffffffffffffffffffffffff161461069a576040517f08c379a000000000000000000000000000000000000000000000000000000000815260040161069190610dad565b60405180910390fd5b60005b815181101561073a578181815181106106b9576106b8610fb4565b5b60200260200101516004600083815260200190815260200160002060006101000a81548160ff0219169083600d8111156106f6576106f5610f85565b5b021790555060016007600083815260200190815260200160002060006101000a81548160ff021916908315150217905550808061073290610f0d565b91505061069d565b5050565b61074661092d565b73ffffffffffffffffffffffffffffffffffffffff166107646104f6565b73ffffffffffffffffffffffffffffffffffffffff16146107ba576040517f08c379a00000000000000000000000000000000000000000000000000000000081526004016107b190610dad565b60405180910390fd5b816005600083600d8111156107d2576107d1610f85565b5b600d8111156107e4576107e3610f85565b5b815260200190815260200160002060006101000a81548160ff0219169083600281111561081457610813610f85565b5b02179055505050565b60016020528060005260406000206000915090505481565b61083d61092d565b73ffffffffffffffffffffffffffffffffffffffff1661085b6104f6565b73ffffffffffffffffffffffffffffffffffffffff16146108b1576040517f08c379a00000000000000000000000000000000000000000000000000000000081526004016108a890610dad565b60405180910390fd5b600073ffffffffffffffffffffffffffffffffffffffff168173ffffffffffffffffffffffffffffffffffffffff161415610921576040517f08c379a000000000000000000000000000000000000000000000000000000000815260040161091890610d8d565b60405180910390fd5b61092a81610935565b50565b600033905090565b60008060009054906101000a900473ffffffffffffffffffffffffffffffffffffffff169050816000806101000a81548173ffffffffffffffffffffffffffffffffffffffff021916908373ffffffffffffffffffffffffffffffffffffffff1602179055508173ffffffffffffffffffffffffffffffffffffffff168173ffffffffffffffffffffffffffffffffffffffff167f8be0079c531659141344cd1fd0a4f28419497f9722a3daafe3b4186f6b6457e060405160405180910390a35050565b6000610a0c610a0784610e0d565b610de8565b90508083825260208201905082856020860282011115610a2f57610a2e611017565b5b60005b85811015610a5f5781610a458882610ac1565b845260208401935060208301925050600181019050610a32565b5050509392505050565b600081359050610a78816110d7565b92915050565b600082601f830112610a9357610a92611012565b5b8135610aa38482602086016109f9565b91505092915050565b600081359050610abb816110ee565b92915050565b600081359050610ad081611105565b92915050565b600081359050610ae581611115565b92915050565b600081359050610afa81611125565b92915050565b600060208284031215610b1657610b15611021565b5b6000610b2484828501610a69565b91505092915050565b600060208284031215610b4357610b42611021565b5b600082013567ffffffffffffffff811115610b6157610b6061101c565b5b610b6d84828501610a7e565b91505092915050565b600060208284031215610b8c57610b8b611021565b5b6000610b9a84828501610ac1565b91505092915050565b60008060408385031215610bba57610bb9611021565b5b6000610bc885828601610ac1565b9250506020610bd985828601610aac565b9150509250929050565b60008060408385031215610bfa57610bf9611021565b5b6000610c0885828601610ad6565b9250506020610c1985828601610ac1565b9150509250929050565b600060208284031215610c3957610c38611021565b5b6000610c4784828501610aeb565b91505092915050565b60008060408385031215610c6757610c66611021565b5b6000610c7585828601610aeb565b9250506020610c8685828601610ac1565b9150509250929050565b610c9981610e4a565b82525050565b610ca881610e5c565b82525050565b610cb781610eb8565b82525050565b610cc681610eca565b82525050565b6000610cd9602683610e39565b9150610ce482611037565b604082019050919050565b6000610cfc602083610e39565b9150610d0782611086565b602082019050919050565b610d1b81610eae565b82525050565b6000602082019050610d366000830184610c90565b92915050565b6000602082019050610d516000830184610c9f565b92915050565b6000602082019050610d6c6000830184610cae565b92915050565b6000602082019050610d876000830184610cbd565b92915050565b60006020820190508181036000830152610da681610ccc565b9050919050565b60006020820190508181036000830152610dc681610cef565b9050919050565b6000602082019050610de26000830184610d12565b92915050565b6000610df2610e03565b9050610dfe8282610edc565b919050565b6000604051905090565b600067ffffffffffffffff821115610e2857610e27610fe3565b5b602082029050602081019050919050565b600082825260208201905092915050565b6000610e5582610e8e565b9050919050565b60008115159050919050565b6000819050610e76826110af565b919050565b6000819050610e89826110c3565b919050565b600073ffffffffffffffffffffffffffffffffffffffff82169050919050565b6000819050919050565b6000610ec382610e68565b9050919050565b6000610ed582610e7b565b9050919050565b610ee582611026565b810181811067ffffffffffffffff82111715610f0457610f03610fe3565b5b80604052505050565b6000610f1882610eae565b91507fffffffffffffffffffffffffffffffffffffffffffffffffffffffffffffffff821415610f4b57610f4a610f56565b5b600182019050919050565b7f4e487b7100000000000000000000000000000000000000000000000000000000600052601160045260246000fd5b7f4e487b7100000000000000000000000000000000000000000000000000000000600052602160045260246000fd5b7f4e487b7100000000000000000000000000000000000000000000000000000000600052603260045260246000fd5b7f4e487b7100000000000000000000000000000000000000000000000000000000600052604160045260246000fd5b600080fd5b600080fd5b600080fd5b600080fd5b6000601f19601f8301169050919050565b7f4f776e61626c653a206e6577206f776e657220697320746865207a65726f206160008201527f6464726573730000000000000000000000000000000000000000000000000000602082015250565b7f4f776e61626c653a2063616c6c6572206973206e6f7420746865206f776e6572600082015250565b600e81106110c0576110bf610f85565b5b50565b600381106110d4576110d3610f85565b5b50565b6110e081610e4a565b81146110eb57600080fd5b50565b6110f781610e5c565b811461110257600080fd5b50565b600e811061111257600080fd5b50565b6003811061112257600080fd5b50565b61112e81610eae565b811461113957600080fd5b5056fea26469706673582212200f7fd26bee712b5598af3baf34a157a37ee9e46e1206bf69a5af9876877f283864736f6c63430008070033",
  "immutableReferences": {},
  "source": "// SPDX-License-Identifier: MIT\r\npragma solidity 0.8.7;\r\n\r\nimport \"@openzeppelin/contracts/access/Ownable.sol\";\r\nimport \"@openzeppelin/contracts/security/Pausable.sol\";\r\n\r\ncontract ItemsConfig is Ownable, Pausable {\r\n    mapping(Quality => uint256) public _maxByQuality;\r\n\r\n    mapping(Quality => uint256) public _mintPriceByQuality;\r\n\r\n    mapping(Quality => bool) public _isSellable;\r\n\r\n    mapping(uint256 => Quality) public _qualityByNumber;\r\n\r\n    mapping(Quality => TypeOfItem) public _typeByQuality;\r\n\r\n    mapping(uint256 => uint256) public _numberByTokenId;\r\n\r\n    mapping(uint256 => bool) public _itemExists;\r\n\r\n    enum TypeOfItem {\r\n        TICKET,\r\n        SPELL,\r\n        CARD\r\n    }\r\n\r\n    enum Quality {\r\n        GOLD,\r\n        PLATINUM,\r\n        DIAMOND,\r\n        C,\r\n        B,\r\n        A,\r\n        S,\r\n        SS,\r\n        X,\r\n        TP,\r\n        LESSERPOTION,\r\n        GREATERPOTION,\r\n        CARDFINDER,\r\n        SPEEDBONUS\r\n    }\r\n \r\n    function _setSellable(Quality quality, bool sellable) public onlyOwner {\r\n        _isSellable[quality] = sellable;\r\n    }\r\n\r\n    function setQualityByNumber(Quality[] memory qualityOfNumber) external onlyOwner {\r\n        for (uint256 i = 0; i < qualityOfNumber.length; i++) {\r\n            _qualityByNumber[i] = qualityOfNumber[i];\r\n            _itemExists[i] = true;\r\n        }\r\n    }\r\n\r\n    function setTypeByQuality(TypeOfItem typeOfItem, Quality quality) external onlyOwner {\r\n        _typeByQuality[quality] = typeOfItem;\r\n    }\r\n\r\n    function setPriceByQuality(uint256 price, Quality quality) external onlyOwner {\r\n        _mintPriceByQuality[quality] = price;\r\n    }\r\n\r\n}\r\n",
  "sourcePath": "E:\\Docs-Coding\\Greed-Islands\\api\\contracts\\ItemsConfig.sol",
  "compiler": {
    "name": "solc",
    "version": "0.8.7+commit.e28d00a7.Emscripten.clang"
  },
  "schemaVersion": "3.4.7",
  "updatedAt": "2022-04-13T09:43:09.910Z",
  "devdoc": {
    "kind": "dev",
    "methods": {
      "owner()": {
        "details": "Returns the address of the current owner."
      },
      "paused()": {
        "details": "Returns true if the contract is paused, and false otherwise."
      },
      "renounceOwnership()": {
        "details": "Leaves the contract without owner. It will not be possible to call `onlyOwner` functions anymore. Can only be called by the current owner. NOTE: Renouncing ownership will leave the contract without an owner, thereby removing any functionality that is only available to the owner."
      },
      "transferOwnership(address)": {
        "details": "Transfers ownership of the contract to a new account (`newOwner`). Can only be called by the current owner."
      }
    },
    "version": 1
  },
  "userdoc": {
    "kind": "user",
    "methods": {},
    "version": 1
  }
}