{
  "contractName": "UserItems",
  "abi": [
    {
      "anonymous": false,
      "inputs": [
        {
          "indexed": true,
          "internalType": "address",
          "name": "previousOwner",
          "type": "address"
        },
        {
          "indexed": true,
          "internalType": "address",
          "name": "newOwner",
          "type": "address"
        }
      ],
      "name": "OwnershipTransferred",
      "type": "event"
    },
    {
      "anonymous": false,
      "inputs": [
        {
          "indexed": false,
          "internalType": "address",
          "name": "account",
          "type": "address"
        }
      ],
      "name": "Paused",
      "type": "event"
    },
    {
      "anonymous": false,
      "inputs": [
        {
          "indexed": false,
          "internalType": "address",
          "name": "account",
          "type": "address"
        }
      ],
      "name": "Unpaused",
      "type": "event"
    },
    {
      "inputs": [
        {
          "internalType": "enum ItemsConfig.Quality",
          "name": "",
          "type": "uint8"
        }
      ],
      "name": "_isSellable",
      "outputs": [
        {
          "internalType": "bool",
          "name": "",
          "type": "bool"
        }
      ],
      "stateMutability": "view",
      "type": "function"
    },
    {
      "inputs": [
        {
          "internalType": "uint256",
          "name": "",
          "type": "uint256"
        }
      ],
      "name": "_itemExists",
      "outputs": [
        {
          "internalType": "bool",
          "name": "",
          "type": "bool"
        }
      ],
      "stateMutability": "view",
      "type": "function"
    },
    {
      "inputs": [
        {
          "internalType": "enum ItemsConfig.Quality",
          "name": "",
          "type": "uint8"
        }
      ],
      "name": "_maxByQuality",
      "outputs": [
        {
          "internalType": "uint256",
          "name": "",
          "type": "uint256"
        }
      ],
      "stateMutability": "view",
      "type": "function"
    },
    {
      "inputs": [
        {
          "internalType": "enum ItemsConfig.Quality",
          "name": "",
          "type": "uint8"
        }
      ],
      "name": "_mintPriceByQuality",
      "outputs": [
        {
          "internalType": "uint256",
          "name": "",
          "type": "uint256"
        }
      ],
      "stateMutability": "view",
      "type": "function"
    },
    {
      "inputs": [
        {
          "internalType": "uint256",
          "name": "",
          "type": "uint256"
        }
      ],
      "name": "_numberByTokenId",
      "outputs": [
        {
          "internalType": "uint256",
          "name": "",
          "type": "uint256"
        }
      ],
      "stateMutability": "view",
      "type": "function"
    },
    {
      "inputs": [
        {
          "internalType": "uint256",
          "name": "",
          "type": "uint256"
        }
      ],
      "name": "_qualityByNumber",
      "outputs": [
        {
          "internalType": "enum ItemsConfig.Quality",
          "name": "",
          "type": "uint8"
        }
      ],
      "stateMutability": "view",
      "type": "function"
    },
    {
      "inputs": [
        {
          "internalType": "enum ItemsConfig.Quality",
          "name": "quality",
          "type": "uint8"
        },
        {
          "internalType": "bool",
          "name": "sellable",
          "type": "bool"
        }
      ],
      "name": "_setSellable",
      "outputs": [],
      "stateMutability": "nonpayable",
      "type": "function"
    },
    {
      "inputs": [
        {
          "internalType": "uint256",
          "name": "",
          "type": "uint256"
        }
      ],
      "name": "_tokenItemIndex",
      "outputs": [
        {
          "internalType": "uint256",
          "name": "",
          "type": "uint256"
        }
      ],
      "stateMutability": "view",
      "type": "function"
    },
    {
      "inputs": [
        {
          "internalType": "enum ItemsConfig.Quality",
          "name": "",
          "type": "uint8"
        }
      ],
      "name": "_typeByQuality",
      "outputs": [
        {
          "internalType": "enum ItemsConfig.TypeOfItem",
          "name": "",
          "type": "uint8"
        }
      ],
      "stateMutability": "view",
      "type": "function"
    },
    {
      "inputs": [
        {
          "internalType": "address",
          "name": "",
          "type": "address"
        },
        {
          "internalType": "uint256",
          "name": "",
          "type": "uint256"
        },
        {
          "internalType": "uint256",
          "name": "",
          "type": "uint256"
        }
      ],
      "name": "_userCards",
      "outputs": [
        {
          "internalType": "uint256",
          "name": "",
          "type": "uint256"
        }
      ],
      "stateMutability": "view",
      "type": "function"
    },
    {
      "inputs": [
        {
          "internalType": "address",
          "name": "",
          "type": "address"
        },
        {
          "internalType": "enum ItemsConfig.Quality",
          "name": "",
          "type": "uint8"
        },
        {
          "internalType": "uint256",
          "name": "",
          "type": "uint256"
        }
      ],
      "name": "_userConsumables",
      "outputs": [
        {
          "internalType": "uint256",
          "name": "",
          "type": "uint256"
        }
      ],
      "stateMutability": "view",
      "type": "function"
    },
    {
      "inputs": [],
      "name": "owner",
      "outputs": [
        {
          "internalType": "address",
          "name": "",
          "type": "address"
        }
      ],
      "stateMutability": "view",
      "type": "function"
    },
    {
      "inputs": [],
      "name": "paused",
      "outputs": [
        {
          "internalType": "bool",
          "name": "",
          "type": "bool"
        }
      ],
      "stateMutability": "view",
      "type": "function"
    },
    {
      "inputs": [],
      "name": "renounceOwnership",
      "outputs": [],
      "stateMutability": "nonpayable",
      "type": "function"
    },
    {
      "inputs": [
        {
          "internalType": "uint256",
          "name": "price",
          "type": "uint256"
        },
        {
          "internalType": "enum ItemsConfig.Quality",
          "name": "quality",
          "type": "uint8"
        }
      ],
      "name": "setPriceByQuality",
      "outputs": [],
      "stateMutability": "nonpayable",
      "type": "function"
    },
    {
      "inputs": [
        {
          "internalType": "enum ItemsConfig.Quality[]",
          "name": "qualityOfNumber",
          "type": "uint8[]"
        }
      ],
      "name": "setQualityByNumber",
      "outputs": [],
      "stateMutability": "nonpayable",
      "type": "function"
    },
    {
      "inputs": [
        {
          "internalType": "enum ItemsConfig.TypeOfItem",
          "name": "typeOfItem",
          "type": "uint8"
        },
        {
          "internalType": "enum ItemsConfig.Quality",
          "name": "quality",
          "type": "uint8"
        }
      ],
      "name": "setTypeByQuality",
      "outputs": [],
      "stateMutability": "nonpayable",
      "type": "function"
    },
    {
      "inputs": [
        {
          "internalType": "address",
          "name": "newOwner",
          "type": "address"
        }
      ],
      "name": "transferOwnership",
      "outputs": [],
      "stateMutability": "nonpayable",
      "type": "function"
    },
    {
      "inputs": [
        {
          "internalType": "address",
          "name": "user",
          "type": "address"
        },
        {
          "internalType": "uint256",
          "name": "number",
          "type": "uint256"
        }
      ],
      "name": "getUserCards",
      "outputs": [
        {
          "internalType": "uint256[]",
          "name": "",
          "type": "uint256[]"
        }
      ],
      "stateMutability": "view",
      "type": "function"
    },
    {
      "inputs": [
        {
          "internalType": "address",
          "name": "user",
          "type": "address"
        },
        {
          "internalType": "enum ItemsConfig.Quality",
          "name": "quality",
          "type": "uint8"
        }
      ],
      "name": "getUserConsumables",
      "outputs": [
        {
          "internalType": "uint256[]",
          "name": "",
          "type": "uint256[]"
        }
      ],
      "stateMutability": "view",
      "type": "function"
    }
  ],
  "bytecode": "0x608060405234801561001057600080fd5b5061002d61002261004c60201b60201c565b61005460201b60201c565b60008060146101000a81548160ff021916908315150217905550610118565b600033905090565b60008060009054906101000a900473ffffffffffffffffffffffffffffffffffffffff169050816000806101000a81548173ffffffffffffffffffffffffffffffffffffffff021916908373ffffffffffffffffffffffffffffffffffffffff1602179055508173ffffffffffffffffffffffffffffffffffffffff168173ffffffffffffffffffffffffffffffffffffffff167f8be0079c531659141344cd1fd0a4f28419497f9722a3daafe3b4186f6b6457e060405160405180910390a35050565b6116a9806101276000396000f3fe608060405234801561001057600080fd5b506004361061012c5760003560e01c80638288c868116100ad578063bad53d5711610071578063bad53d571461038f578063ce26e0c4146103ab578063d266133d146103db578063dcdb4db7146103f7578063f2fde38b146104275761012c565b80638288c868146102c55780638da5cb5b146102f55780639848d909146103135780639c07740214610343578063b668422b1461035f5761012c565b806354cd93d0116100f457806354cd93d01461020d5780635516a7821461023d5780635c975abb1461026d578063715018a61461028b57806376c98cfe146102955761012c565b806306c8ffcd1461013157806320cf9c9914610161578063407fc8981461019157806346ebc79f146101ad5780634e249ae2146101dd575b600080fd5b61014b60048036038101906101469190610e5e565b610443565b6040516101589190611218565b60405180910390f35b61017b6004803603810190610176919061107a565b610510565b604051610188919061123a565b60405180910390f35b6101ab60048036038101906101a691906110a7565b610530565b005b6101c760048036038101906101c29190610fcd565b6105ec565b6040516101d49190611270565b60405180910390f35b6101f760048036038101906101f29190610ef1565b61060c565b6040516102049190611218565b60405180910390f35b61022760048036038101906102229190610fcd565b6106b5565b604051610234919061123a565b60405180910390f35b6102576004803603810190610252919061107a565b6106d5565b6040516102649190611255565b60405180910390f35b6102756106f5565b604051610282919061123a565b60405180910390f35b61029361070b565b005b6102af60048036038101906102aa9190610e9e565b610793565b6040516102bc91906112cb565b60405180910390f35b6102df60048036038101906102da9190610f31565b6107d1565b6040516102ec91906112cb565b60405180910390f35b6102fd61080f565b60405161030a91906111fd565b60405180910390f35b61032d60048036038101906103289190610fcd565b610838565b60405161033a91906112cb565b60405180910390f35b61035d60048036038101906103589190610ffa565b610850565b005b6103796004803603810190610374919061107a565b61091f565b60405161038691906112cb565b60405180910390f35b6103a960048036038101906103a49190610f84565b610937565b005b6103c560048036038101906103c0919061107a565b610a57565b6040516103d291906112cb565b60405180910390f35b6103f560048036038101906103f0919061103a565b610a6f565b005b610411600480360381019061040c9190610fcd565b610b4e565b60405161041e91906112cb565b60405180910390f35b610441600480360381019061043c9190610e31565b610b66565b005b6060600960008473ffffffffffffffffffffffffffffffffffffffff1673ffffffffffffffffffffffffffffffffffffffff168152602001908152602001600020600083600d811115610499576104986114bc565b5b600d8111156104ab576104aa6114bc565b5b815260200190815260200160002080548060200260200160405190810160405280929190818152602001828054801561050357602002820191906000526020600020905b8154815260200190600101908083116104ef575b5050505050905092915050565b60076020528060005260406000206000915054906101000a900460ff1681565b610538610c5e565b73ffffffffffffffffffffffffffffffffffffffff1661055661080f565b73ffffffffffffffffffffffffffffffffffffffff16146105ac576040517f08c379a00000000000000000000000000000000000000000000000000000000081526004016105a3906112ab565b60405180910390fd5b816002600083600d8111156105c4576105c36114bc565b5b600d8111156105d6576105d56114bc565b5b8152602001908152602001600020819055505050565b60056020528060005260406000206000915054906101000a900460ff1681565b6060600860008473ffffffffffffffffffffffffffffffffffffffff1673ffffffffffffffffffffffffffffffffffffffff16815260200190815260200160002060008381526020019081526020016000208054806020026020016040519081016040528092919081815260200182805480156106a857602002820191906000526020600020905b815481526020019060010190808311610694575b5050505050905092915050565b60036020528060005260406000206000915054906101000a900460ff1681565b60046020528060005260406000206000915054906101000a900460ff1681565b60008060149054906101000a900460ff16905090565b610713610c5e565b73ffffffffffffffffffffffffffffffffffffffff1661073161080f565b73ffffffffffffffffffffffffffffffffffffffff1614610787576040517f08c379a000000000000000000000000000000000000000000000000000000000815260040161077e906112ab565b60405180910390fd5b6107916000610c66565b565b600960205282600052604060002060205281600052604060002081815481106107bb57600080fd5b9060005260206000200160009250925050505481565b600860205282600052604060002060205281600052604060002081815481106107f957600080fd5b9060005260206000200160009250925050505481565b60008060009054906101000a900473ffffffffffffffffffffffffffffffffffffffff16905090565b60026020528060005260406000206000915090505481565b610858610c5e565b73ffffffffffffffffffffffffffffffffffffffff1661087661080f565b73ffffffffffffffffffffffffffffffffffffffff16146108cc576040517f08c379a00000000000000000000000000000000000000000000000000000000081526004016108c3906112ab565b60405180910390fd5b806003600084600d8111156108e4576108e36114bc565b5b600d8111156108f6576108f56114bc565b5b815260200190815260200160002060006101000a81548160ff0219169083151502179055505050565b60066020528060005260406000206000915090505481565b61093f610c5e565b73ffffffffffffffffffffffffffffffffffffffff1661095d61080f565b73ffffffffffffffffffffffffffffffffffffffff16146109b3576040517f08c379a00000000000000000000000000000000000000000000000000000000081526004016109aa906112ab565b60405180910390fd5b60005b8151811015610a53578181815181106109d2576109d16114eb565b5b60200260200101516004600083815260200190815260200160002060006101000a81548160ff0219169083600d811115610a0f57610a0e6114bc565b5b021790555060016007600083815260200190815260200160002060006101000a81548160ff0219169083151502179055508080610a4b90611444565b9150506109b6565b5050565b600a6020528060005260406000206000915090505481565b610a77610c5e565b73ffffffffffffffffffffffffffffffffffffffff16610a9561080f565b73ffffffffffffffffffffffffffffffffffffffff1614610aeb576040517f08c379a0000000000000000000000000000000000000000000000000000000008152600401610ae2906112ab565b60405180910390fd5b816005600083600d811115610b0357610b026114bc565b5b600d811115610b1557610b146114bc565b5b815260200190815260200160002060006101000a81548160ff02191690836002811115610b4557610b446114bc565b5b02179055505050565b60016020528060005260406000206000915090505481565b610b6e610c5e565b73ffffffffffffffffffffffffffffffffffffffff16610b8c61080f565b73ffffffffffffffffffffffffffffffffffffffff1614610be2576040517f08c379a0000000000000000000000000000000000000000000000000000000008152600401610bd9906112ab565b60405180910390fd5b600073ffffffffffffffffffffffffffffffffffffffff168173ffffffffffffffffffffffffffffffffffffffff161415610c52576040517f08c379a0000000000000000000000000000000000000000000000000000000008152600401610c499061128b565b60405180910390fd5b610c5b81610c66565b50565b600033905090565b60008060009054906101000a900473ffffffffffffffffffffffffffffffffffffffff169050816000806101000a81548173ffffffffffffffffffffffffffffffffffffffff021916908373ffffffffffffffffffffffffffffffffffffffff1602179055508173ffffffffffffffffffffffffffffffffffffffff168173ffffffffffffffffffffffffffffffffffffffff167f8be0079c531659141344cd1fd0a4f28419497f9722a3daafe3b4186f6b6457e060405160405180910390a35050565b6000610d3d610d388461130b565b6112e6565b90508083825260208201905082856020860282011115610d6057610d5f61154e565b5b60005b85811015610d905781610d768882610df2565b845260208401935060208301925050600181019050610d63565b5050509392505050565b600081359050610da98161160e565b92915050565b600082601f830112610dc457610dc3611549565b5b8135610dd4848260208601610d2a565b91505092915050565b600081359050610dec81611625565b92915050565b600081359050610e018161163c565b92915050565b600081359050610e168161164c565b92915050565b600081359050610e2b8161165c565b92915050565b600060208284031215610e4757610e46611558565b5b6000610e5584828501610d9a565b91505092915050565b60008060408385031215610e7557610e74611558565b5b6000610e8385828601610d9a565b9250506020610e9485828601610df2565b9150509250929050565b600080600060608486031215610eb757610eb6611558565b5b6000610ec586828701610d9a565b9350506020610ed686828701610df2565b9250506040610ee786828701610e1c565b9150509250925092565b60008060408385031215610f0857610f07611558565b5b6000610f1685828601610d9a565b9250506020610f2785828601610e1c565b9150509250929050565b600080600060608486031215610f4a57610f49611558565b5b6000610f5886828701610d9a565b9350506020610f6986828701610e1c565b9250506040610f7a86828701610e1c565b9150509250925092565b600060208284031215610f9a57610f99611558565b5b600082013567ffffffffffffffff811115610fb857610fb7611553565b5b610fc484828501610daf565b91505092915050565b600060208284031215610fe357610fe2611558565b5b6000610ff184828501610df2565b91505092915050565b6000806040838503121561101157611010611558565b5b600061101f85828601610df2565b925050602061103085828601610ddd565b9150509250929050565b6000806040838503121561105157611050611558565b5b600061105f85828601610e07565b925050602061107085828601610df2565b9150509250929050565b6000602082840312156110905761108f611558565b5b600061109e84828501610e1c565b91505092915050565b600080604083850312156110be576110bd611558565b5b60006110cc85828601610e1c565b92505060206110dd85828601610df2565b9150509250929050565b60006110f383836111df565b60208301905092915050565b61110881611381565b82525050565b600061111982611347565b611123818561135f565b935061112e83611337565b8060005b8381101561115f57815161114688826110e7565b975061115183611352565b925050600181019050611132565b5085935050505092915050565b61117581611393565b82525050565b611184816113ef565b82525050565b61119381611401565b82525050565b60006111a6602683611370565b91506111b18261156e565b604082019050919050565b60006111c9602083611370565b91506111d4826115bd565b602082019050919050565b6111e8816113e5565b82525050565b6111f7816113e5565b82525050565b600060208201905061121260008301846110ff565b92915050565b60006020820190508181036000830152611232818461110e565b905092915050565b600060208201905061124f600083018461116c565b92915050565b600060208201905061126a600083018461117b565b92915050565b6000602082019050611285600083018461118a565b92915050565b600060208201905081810360008301526112a481611199565b9050919050565b600060208201905081810360008301526112c4816111bc565b9050919050565b60006020820190506112e060008301846111ee565b92915050565b60006112f0611301565b90506112fc8282611413565b919050565b6000604051905090565b600067ffffffffffffffff8211156113265761132561151a565b5b602082029050602081019050919050565b6000819050602082019050919050565b600081519050919050565b6000602082019050919050565b600082825260208201905092915050565b600082825260208201905092915050565b600061138c826113c5565b9050919050565b60008115159050919050565b60008190506113ad826115e6565b919050565b60008190506113c0826115fa565b919050565b600073ffffffffffffffffffffffffffffffffffffffff82169050919050565b6000819050919050565b60006113fa8261139f565b9050919050565b600061140c826113b2565b9050919050565b61141c8261155d565b810181811067ffffffffffffffff8211171561143b5761143a61151a565b5b80604052505050565b600061144f826113e5565b91507fffffffffffffffffffffffffffffffffffffffffffffffffffffffffffffffff8214156114825761148161148d565b5b600182019050919050565b7f4e487b7100000000000000000000000000000000000000000000000000000000600052601160045260246000fd5b7f4e487b7100000000000000000000000000000000000000000000000000000000600052602160045260246000fd5b7f4e487b7100000000000000000000000000000000000000000000000000000000600052603260045260246000fd5b7f4e487b7100000000000000000000000000000000000000000000000000000000600052604160045260246000fd5b600080fd5b600080fd5b600080fd5b600080fd5b6000601f19601f8301169050919050565b7f4f776e61626c653a206e6577206f776e657220697320746865207a65726f206160008201527f6464726573730000000000000000000000000000000000000000000000000000602082015250565b7f4f776e61626c653a2063616c6c6572206973206e6f7420746865206f776e6572600082015250565b600e81106115f7576115f66114bc565b5b50565b6003811061160b5761160a6114bc565b5b50565b61161781611381565b811461162257600080fd5b50565b61162e81611393565b811461163957600080fd5b50565b600e811061164957600080fd5b50565b6003811061165957600080fd5b50565b611665816113e5565b811461167057600080fd5b5056fea26469706673582212200c2d04de70d44613d8899e7fe6fe9f811662d4cdc425d69237618973f3c33c5864736f6c63430008070033",
  "immutableReferences": {},
  "source": "// SPDX-License-Identifier: MIT\r\npragma solidity 0.8.7;\r\n\r\nimport \"@openzeppelin/contracts/utils/Counters.sol\";\r\nimport \"./ItemsConfig.sol\";\r\n\r\ncontract UserItems is ItemsConfig {\r\n    using Counters for Counters.Counter;\r\n\r\n    mapping(address => mapping(uint256 => uint256[])) public _userCards;\r\n\r\n    mapping(address => mapping(Quality => uint256[])) public _userConsumables;\r\n\r\n    mapping(uint256 => uint256) public _tokenItemIndex;\r\n    \r\n    function getUserCards(address user, uint256 number) external view returns(uint256[] memory) {\r\n        return _userCards[user][number];\r\n    }\r\n\r\n    function getUserConsumables(address user, Quality quality) external view returns(uint256[] memory) {\r\n        return _userConsumables[user][quality];\r\n    }\r\n\r\n\r\n}\r\n",
  "sourcePath": "E:\\Docs-Coding\\Greed-Islands\\api\\contracts\\UserItems.sol",
  "compiler": {
    "name": "solc",
    "version": "0.8.7+commit.e28d00a7.Emscripten.clang"
  },
  "schemaVersion": "3.4.7",
  "updatedAt": "2022-04-13T09:43:09.921Z",
  "devdoc": {
    "kind": "dev",
    "methods": {
      "owner()": {
        "details": "Returns the address of the current owner."
      },
      "paused()": {
        "details": "Returns true if the contract is paused, and false otherwise."
      },
      "renounceOwnership()": {
        "details": "Leaves the contract without owner. It will not be possible to call `onlyOwner` functions anymore. Can only be called by the current owner. NOTE: Renouncing ownership will leave the contract without an owner, thereby removing any functionality that is only available to the owner."
      },
      "transferOwnership(address)": {
        "details": "Transfers ownership of the contract to a new account (`newOwner`). Can only be called by the current owner."
      }
    },
    "version": 1
  },
  "userdoc": {
    "kind": "user",
    "methods": {},
    "version": 1
  }
}